{
  "contractName": "PropertyChain",
  "abi": [
    {
      "constant": true,
      "inputs": [
        {
          "name": "",
          "type": "address"
        }
      ],
      "name": "userMapping",
      "outputs": [
        {
          "name": "name",
          "type": "string"
        },
        {
          "name": "avatar",
          "type": "string"
        },
        {
          "name": "authority",
          "type": "bool"
        }
      ],
      "payable": false,
      "stateMutability": "view",
      "type": "function"
    },
    {
      "constant": true,
      "inputs": [
        {
          "name": "",
          "type": "address"
        },
        {
          "name": "",
          "type": "uint256"
        }
      ],
      "name": "agreementRequests",
      "outputs": [
        {
          "name": "",
          "type": "uint256"
        }
      ],
      "payable": false,
      "stateMutability": "view",
      "type": "function"
    },
    {
      "constant": true,
      "inputs": [
        {
          "name": "",
          "type": "uint256"
        }
      ],
      "name": "transactions",
      "outputs": [
        {
          "name": "hash",
          "type": "string"
        },
        {
          "name": "source",
          "type": "address"
        },
        {
          "name": "target",
          "type": "address"
        },
        {
          "name": "amount",
          "type": "uint256"
        }
      ],
      "payable": false,
      "stateMutability": "view",
      "type": "function"
    },
    {
      "constant": true,
      "inputs": [
        {
          "name": "",
          "type": "uint256"
        }
      ],
      "name": "agreements",
      "outputs": [
        {
          "name": "initiator",
          "type": "address"
        },
        {
          "name": "target",
          "type": "address"
        },
        {
          "name": "property",
          "type": "uint256"
        },
        {
          "name": "amount",
          "type": "uint256"
        },
        {
          "name": "amountPaid",
          "type": "uint256"
        },
        {
          "name": "state",
          "type": "uint8"
        },
        {
          "name": "stampDuty",
          "type": "uint256"
        },
        {
          "name": "stampDutyAmountPaid",
          "type": "uint256"
        },
        {
          "name": "terms",
          "type": "string"
        }
      ],
      "payable": false,
      "stateMutability": "view",
      "type": "function"
    },
    {
      "constant": true,
      "inputs": [
        {
          "name": "",
          "type": "address"
        },
        {
          "name": "",
          "type": "uint256"
        }
      ],
      "name": "propertyIndices",
      "outputs": [
        {
          "name": "",
          "type": "uint256"
        }
      ],
      "payable": false,
      "stateMutability": "view",
      "type": "function"
    },
    {
      "constant": true,
      "inputs": [
        {
          "name": "",
          "type": "uint256"
        }
      ],
      "name": "properties",
      "outputs": [
        {
          "name": "locationAddress",
          "type": "string"
        },
        {
          "name": "owner",
          "type": "address"
        },
        {
          "name": "approved",
          "type": "bool"
        },
        {
          "name": "recordsSize",
          "type": "uint256"
        }
      ],
      "payable": false,
      "stateMutability": "view",
      "type": "function"
    },
    {
      "inputs": [],
      "payable": false,
      "stateMutability": "nonpayable",
      "type": "constructor"
    },
    {
      "anonymous": false,
      "inputs": [
        {
          "indexed": false,
          "name": "id",
          "type": "uint256"
        },
        {
          "indexed": false,
          "name": "state",
          "type": "uint256"
        }
      ],
      "name": "AgreementUpdated",
      "type": "event"
    },
    {
      "constant": true,
      "inputs": [],
      "name": "getAgreementsLength",
      "outputs": [
        {
          "name": "",
          "type": "uint256"
        }
      ],
      "payable": false,
      "stateMutability": "view",
      "type": "function"
    },
    {
      "constant": true,
      "inputs": [],
      "name": "getPropertiesLength",
      "outputs": [
        {
          "name": "",
          "type": "uint256"
        }
      ],
      "payable": false,
      "stateMutability": "view",
      "type": "function"
    },
    {
      "constant": true,
      "inputs": [
        {
          "name": "_a",
          "type": "address"
        }
      ],
      "name": "getAgreementRequests",
      "outputs": [
        {
          "name": "",
          "type": "uint256[]"
        }
      ],
      "payable": false,
      "stateMutability": "view",
      "type": "function"
    },
    {
      "constant": false,
      "inputs": [
        {
          "name": "_hash",
          "type": "string"
        },
        {
          "name": "_target",
          "type": "address"
        },
        {
          "name": "_amount",
          "type": "uint256"
        }
      ],
      "name": "createTransaction",
      "outputs": [
        {
          "name": "_successful",
          "type": "bool"
        }
      ],
      "payable": false,
      "stateMutability": "nonpayable",
      "type": "function"
    },
    {
      "constant": true,
      "inputs": [],
      "name": "getTransactionCount",
      "outputs": [
        {
          "name": "_count",
          "type": "uint256"
        }
      ],
      "payable": false,
      "stateMutability": "view",
      "type": "function"
    },
    {
      "constant": true,
      "inputs": [
        {
          "name": "_index",
          "type": "uint256"
        }
      ],
      "name": "getTransactionByIndex",
      "outputs": [
        {
          "name": "_hash",
          "type": "string"
        },
        {
          "name": "_source",
          "type": "address"
        },
        {
          "name": "_target",
          "type": "address"
        },
        {
          "name": "_amount",
          "type": "uint256"
        }
      ],
      "payable": false,
      "stateMutability": "view",
      "type": "function"
    },
    {
      "constant": false,
      "inputs": [
        {
          "name": "_agreement_index",
          "type": "uint256"
        },
        {
          "name": "_deal_timestamp",
          "type": "string"
        }
      ],
      "name": "transferProperty",
      "outputs": [
        {
          "name": "_successful",
          "type": "bool"
        }
      ],
      "payable": false,
      "stateMutability": "nonpayable",
      "type": "function"
    },
    {
      "constant": false,
      "inputs": [
        {
          "name": "_user",
          "type": "address"
        },
        {
          "name": "_address",
          "type": "string"
        }
      ],
      "name": "seedProperties",
      "outputs": [],
      "payable": false,
      "stateMutability": "nonpayable",
      "type": "function"
    },
    {
      "constant": true,
      "inputs": [
        {
          "name": "_user",
          "type": "address"
        }
      ],
      "name": "getUserPropertyIndices",
      "outputs": [
        {
          "name": "",
          "type": "uint256[]"
        }
      ],
      "payable": false,
      "stateMutability": "view",
      "type": "function"
    },
    {
      "constant": true,
      "inputs": [
        {
          "name": "_index",
          "type": "uint256"
        }
      ],
      "name": "getPropertyByIndex",
      "outputs": [
        {
          "name": "",
          "type": "string"
        },
        {
          "name": "",
          "type": "address"
        },
        {
          "name": "",
          "type": "bool"
        },
        {
          "name": "",
          "type": "uint256"
        }
      ],
      "payable": false,
      "stateMutability": "view",
      "type": "function"
    },
    {
      "constant": true,
      "inputs": [
        {
          "name": "_property_index",
          "type": "uint256"
        },
        {
          "name": "_index",
          "type": "uint256"
        }
      ],
      "name": "getRecordByIndex",
      "outputs": [
        {
          "name": "",
          "type": "address"
        },
        {
          "name": "",
          "type": "address"
        },
        {
          "name": "",
          "type": "uint256"
        },
        {
          "name": "",
          "type": "string"
        }
      ],
      "payable": false,
      "stateMutability": "view",
      "type": "function"
    },
    {
      "constant": true,
      "inputs": [
        {
          "name": "_user",
          "type": "address"
        }
      ],
      "name": "getUser",
      "outputs": [
        {
          "name": "",
          "type": "string"
        },
        {
          "name": "",
          "type": "string"
        },
        {
          "name": "",
          "type": "bool"
        }
      ],
      "payable": false,
      "stateMutability": "view",
      "type": "function"
    },
    {
      "constant": false,
      "inputs": [
        {
          "name": "_user",
          "type": "address"
        },
        {
          "name": "_name",
          "type": "string"
        },
        {
          "name": "_avatar",
          "type": "string"
        }
      ],
      "name": "updateUser",
      "outputs": [],
      "payable": false,
      "stateMutability": "nonpayable",
      "type": "function"
    },
    {
      "constant": false,
      "inputs": [
        {
          "name": "_user",
          "type": "address"
        }
      ],
      "name": "makeAuthority",
      "outputs": [],
      "payable": false,
      "stateMutability": "nonpayable",
      "type": "function"
    },
    {
      "constant": false,
      "inputs": [
        {
          "name": "_property_index",
          "type": "uint256"
        },
        {
          "name": "_amount",
          "type": "uint256"
        },
        {
          "name": "_buyer",
          "type": "address"
        },
        {
          "name": "_terms",
          "type": "string"
        }
      ],
      "name": "intiateAgreement",
      "outputs": [
        {
          "name": "_id",
          "type": "uint256"
        }
      ],
      "payable": false,
      "stateMutability": "nonpayable",
      "type": "function"
    },
    {
      "constant": true,
      "inputs": [],
      "name": "getAgreementRequestsIndices",
      "outputs": [
        {
          "name": "",
          "type": "uint256[]"
        }
      ],
      "payable": false,
      "stateMutability": "view",
      "type": "function"
    },
    {
      "constant": true,
      "inputs": [
        {
          "name": "_index",
          "type": "uint256"
        }
      ],
      "name": "getAgreementByIndex",
      "outputs": [
        {
          "name": "",
          "type": "address"
        },
        {
          "name": "",
          "type": "address"
        },
        {
          "name": "",
          "type": "uint256"
        },
        {
          "name": "",
          "type": "uint256[]"
        },
        {
          "name": "",
          "type": "uint256"
        },
        {
          "name": "",
          "type": "uint256"
        },
        {
          "name": "",
          "type": "uint256"
        },
        {
          "name": "",
          "type": "uint256"
        },
        {
          "name": "",
          "type": "string"
        }
      ],
      "payable": false,
      "stateMutability": "view",
      "type": "function"
    },
    {
      "constant": false,
      "inputs": [
        {
          "name": "index",
          "type": "uint256"
        }
      ],
      "name": "acceptAgreement",
      "outputs": [],
      "payable": false,
      "stateMutability": "nonpayable",
      "type": "function"
    },
    {
      "constant": false,
      "inputs": [
        {
          "name": "index",
          "type": "uint256"
        }
      ],
      "name": "rejectAgreement",
      "outputs": [],
      "payable": false,
      "stateMutability": "nonpayable",
      "type": "function"
    },
    {
      "constant": false,
      "inputs": [
        {
          "name": "index",
          "type": "uint256"
        }
      ],
      "name": "paySeller",
      "outputs": [],
      "payable": true,
      "stateMutability": "payable",
      "type": "function"
    },
    {
      "constant": false,
      "inputs": [
        {
          "name": "index",
          "type": "uint256"
        }
      ],
      "name": "pay_duty",
      "outputs": [],
      "payable": true,
      "stateMutability": "payable",
      "type": "function"
    },
    {
      "constant": true,
      "inputs": [],
      "name": "getGovBalance",
      "outputs": [
        {
          "name": "",
          "type": "uint256"
        }
      ],
      "payable": false,
      "stateMutability": "view",
      "type": "function"
    }
  ],
  "bytecode": "0x608060405234801561001057600080fd5b50336000806101000a81548173ffffffffffffffffffffffffffffffffffffffff021916908373ffffffffffffffffffffffffffffffffffffffff16021790555061349d806100606000396000f30060806040526004361061016a576000357c0100000000000000000000000000000000000000000000000000000000900463ffffffff16806303c3bc4f1461016f5780630f27426c146101b257806310e8b22d1461024a578063118b9535146103195780631c510ea91461044c57806325365424146104775780632e7700f0146105945780633ae776d2146105bf578063457c8816146105ec57806362272f951461061957806368302467146107905780636f77926b146107b05780637f333220146108e3578063869152e71461094457806387b28c4814610a575780639790e4a214610ae05780639ace38c214610b78578063bd14de9614610c8b578063ccea3f5714610dcf578063d3cd0dc914610e30578063d41861b314610e5b578063d654a2a914610f46578063e29da4c014610fd1578063e838810714610ff1578063eef3e68d1461105d578063f1607bf51461110e578063f40b2a4a14611139578063f7b10808146111e4575b600080fd5b34801561017b57600080fd5b506101b0600480360381019080803573ffffffffffffffffffffffffffffffffffffffff1690602001909291905050506112cf565b005b3480156101be57600080fd5b506101f3600480360381019080803573ffffffffffffffffffffffffffffffffffffffff16906020019092919050505061132d565b6040518080602001828103825283818151815260200191508051906020019060200280838360005b8381101561023657808201518184015260208101905061021b565b505050509050019250505060405180910390f35b34801561025657600080fd5b50610317600480360381019080803573ffffffffffffffffffffffffffffffffffffffff169060200190929190803590602001908201803590602001908080601f0160208091040260200160405190810160405280939291908181526020018383808284378201915050505050509192919290803590602001908201803590602001908080601f01602080910402602001604051908101604052809392919081815260200183838082843782019150505050505091929192905050506113c4565b005b34801561032557600080fd5b5061035a600480360381019080803573ffffffffffffffffffffffffffffffffffffffff16906020019092919050505061143f565b60405180806020018060200184151515158152602001838103835286818151815260200191508051906020019080838360005b838110156103a857808201518184015260208101905061038d565b50505050905090810190601f1680156103d55780820380516001836020036101000a031916815260200191505b50838103825285818151815260200191508051906020019080838360005b8381101561040e5780820151818401526020810190506103f3565b50505050905090810190601f16801561043b5780820380516001836020036101000a031916815260200191505b509550505050505060405180910390f35b34801561045857600080fd5b506104616115a6565b6040518082815260200191505060405180910390f35b34801561048357600080fd5b506104ac60048036038101908080359060200190929190803590602001909291905050506115b3565b604051808573ffffffffffffffffffffffffffffffffffffffff1673ffffffffffffffffffffffffffffffffffffffff1681526020018473ffffffffffffffffffffffffffffffffffffffff1673ffffffffffffffffffffffffffffffffffffffff16815260200183815260200180602001828103825283818151815260200191508051906020019080838360005b8381101561055657808201518184015260208101905061053b565b50505050905090810190601f1680156105835780820380516001836020036101000a031916815260200191505b509550505050505060405180910390f35b3480156105a057600080fd5b506105a96116f0565b6040518082815260200191505060405180910390f35b3480156105cb57600080fd5b506105ea600480360381019080803590602001909291905050506116fd565b005b3480156105f857600080fd5b50610617600480360381019080803590602001909291905050506117b8565b005b34801561062557600080fd5b5061064460048036038101908080359060200190929190505050611874565b604051808a73ffffffffffffffffffffffffffffffffffffffff1673ffffffffffffffffffffffffffffffffffffffff1681526020018973ffffffffffffffffffffffffffffffffffffffff1673ffffffffffffffffffffffffffffffffffffffff1681526020018881526020018060200187815260200186815260200185815260200184815260200180602001838103835289818151815260200191508051906020019060200280838360005b8381101561070d5780820151818401526020810190506106f2565b50505050905001838103825284818151815260200191508051906020019080838360005b8381101561074c578082015181840152602081019050610731565b50505050905090810190601f1680156107795780820380516001836020036101000a031916815260200191505b509b50505050505050505050505060405180910390f35b6107ae60048036038101908080359060200190929190505050611b1c565b005b3480156107bc57600080fd5b506107f1600480360381019080803573ffffffffffffffffffffffffffffffffffffffff169060200190929190505050611c64565b60405180806020018060200184151515158152602001838103835286818151815260200191508051906020019080838360005b8381101561083f578082015181840152602081019050610824565b50505050905090810190601f16801561086c5780820380516001836020036101000a031916815260200191505b50838103825285818151815260200191508051906020019080838360005b838110156108a557808201518184015260208101905061088a565b50505050905090810190601f1680156108d25780820380516001836020036101000a031916815260200191505b509550505050505060405180910390f35b3480156108ef57600080fd5b5061092e600480360381019080803573ffffffffffffffffffffffffffffffffffffffff16906020019092919080359060200190929190505050611e0b565b6040518082815260200191505060405180910390f35b34801561095057600080fd5b5061096f60048036038101908080359060200190929190505050611e3b565b60405180806020018573ffffffffffffffffffffffffffffffffffffffff1673ffffffffffffffffffffffffffffffffffffffff1681526020018473ffffffffffffffffffffffffffffffffffffffff1673ffffffffffffffffffffffffffffffffffffffff168152602001838152602001828103825286818151815260200191508051906020019080838360005b83811015610a195780820151818401526020810190506109fe565b50505050905090810190601f168015610a465780820380516001836020036101000a031916815260200191505b509550505050505060405180910390f35b348015610a6357600080fd5b50610ade600480360381019080803573ffffffffffffffffffffffffffffffffffffffff169060200190929190803590602001908201803590602001908080601f0160208091040260200160405190810160405280939291908181526020018383808284378201915050505050509192919290505050611ff4565b005b348015610aec57600080fd5b50610b21600480360381019080803573ffffffffffffffffffffffffffffffffffffffff169060200190929190505050612183565b6040518080602001828103825283818151815260200191508051906020019060200280838360005b83811015610b64578082015181840152602081019050610b49565b505050509050019250505060405180910390f35b348015610b8457600080fd5b50610ba36004803603810190808035906020019092919050505061221a565b60405180806020018573ffffffffffffffffffffffffffffffffffffffff1673ffffffffffffffffffffffffffffffffffffffff1681526020018473ffffffffffffffffffffffffffffffffffffffff1673ffffffffffffffffffffffffffffffffffffffff168152602001838152602001828103825286818151815260200191508051906020019080838360005b83811015610c4d578082015181840152602081019050610c32565b50505050905090810190601f168015610c7a5780820380516001836020036101000a031916815260200191505b509550505050505060405180910390f35b348015610c9757600080fd5b50610cb660048036038101908080359060200190929190505050612331565b604051808a73ffffffffffffffffffffffffffffffffffffffff1673ffffffffffffffffffffffffffffffffffffffff1681526020018973ffffffffffffffffffffffffffffffffffffffff1673ffffffffffffffffffffffffffffffffffffffff168152602001888152602001878152602001868152602001856006811115610d3c57fe5b60ff16815260200184815260200183815260200180602001828103825283818151815260200191508051906020019080838360005b83811015610d8c578082015181840152602081019050610d71565b50505050905090810190601f168015610db95780820380516001836020036101000a031916815260200191505b509a505050505050505050505060405180910390f35b348015610ddb57600080fd5b50610e1a600480360381019080803573ffffffffffffffffffffffffffffffffffffffff16906020019092919080359060200190929190505050612473565b6040518082815260200191505060405180910390f35b348015610e3c57600080fd5b50610e456124a3565b6040518082815260200191505060405180910390f35b348015610e6757600080fd5b50610e86600480360381019080803590602001909291905050506124c2565b60405180806020018573ffffffffffffffffffffffffffffffffffffffff1673ffffffffffffffffffffffffffffffffffffffff16815260200184151515158152602001838152602001828103825286818151815260200191508051906020019080838360005b83811015610f08578082015181840152602081019050610eed565b50505050905090810190601f168015610f355780820380516001836020036101000a031916815260200191505b509550505050505060405180910390f35b348015610f5257600080fd5b50610fb760048036038101908080359060200190929190803590602001908201803590602001908080601f01602080910402602001604051908101604052809392919081815260200183838082843782019150505050505091929192905050506125d5565b604051808215151515815260200191505060405180910390f35b610fef60048036038101908080359060200190929190505050612a8f565b005b348015610ffd57600080fd5b50611006612b6c565b6040518080602001828103825283818151815260200191508051906020019060200280838360005b8381101561104957808201518184015260208101905061102e565b505050509050019250505060405180910390f35b34801561106957600080fd5b506110f86004803603810190808035906020019092919080359060200190929190803573ffffffffffffffffffffffffffffffffffffffff169060200190929190803590602001908201803590602001908080601f0160208091040260200160405190810160405280939291908181526020018383808284378201915050505050509192919290505050612c01565b6040518082815260200191505060405180910390f35b34801561111a57600080fd5b50611123612f00565b6040518082815260200191505060405180910390f35b34801561114557600080fd5b506111ca600480360381019080803590602001908201803590602001908080601f0160208091040260200160405190810160405280939291908181526020018383808284378201915050505050509192919290803573ffffffffffffffffffffffffffffffffffffffff16906020019092919080359060200190929190505050612f0d565b604051808215151515815260200191505060405180910390f35b3480156111f057600080fd5b5061120f60048036038101908080359060200190929190505050613059565b60405180806020018573ffffffffffffffffffffffffffffffffffffffff1673ffffffffffffffffffffffffffffffffffffffff16815260200184151515158152602001838152602001828103825286818151815260200191508051906020019080838360005b83811015611291578082015181840152602081019050611276565b50505050905090810190601f1680156112be5780820380516001836020036101000a031916815260200191505b509550505050505060405180910390f35b6001600560008373ffffffffffffffffffffffffffffffffffffffff1673ffffffffffffffffffffffffffffffffffffffff16815260200190815260200160002060020160006101000a81548160ff02191690831515021790555050565b6060600460008373ffffffffffffffffffffffffffffffffffffffff1673ffffffffffffffffffffffffffffffffffffffff1681526020019081526020016000208054806020026020016040519081016040528092919081815260200182805480156113b857602002820191906000526020600020905b8154815260200190600101908083116113a4575b50505050509050919050565b6000600560008573ffffffffffffffffffffffffffffffffffffffff1673ffffffffffffffffffffffffffffffffffffffff16815260200190815260200160002090508281600001908051906020019061141f92919061315d565b508181600101908051906020019061143892919061315d565b5050505050565b6005602052806000526040600020600091509050806000018054600181600116156101000203166002900480601f0160208091040260200160405190810160405280929190818152602001828054600181600116156101000203166002900480156114eb5780601f106114c0576101008083540402835291602001916114eb565b820191906000526020600020905b8154815290600101906020018083116114ce57829003601f168201915b505050505090806001018054600181600116156101000203166002900480601f0160208091040260200160405190810160405280929190818152602001828054600181600116156101000203166002900480156115895780601f1061155e57610100808354040283529160200191611589565b820191906000526020600020905b81548152906001019060200180831161156c57829003601f168201915b5050505050908060020160009054906101000a900460ff16905083565b6000600180549050905090565b6000806000606060006002878154811015156115cb57fe5b9060005260206000209060040201600201600087815260200190815260200160002090508060000160009054906101000a900473ffffffffffffffffffffffffffffffffffffffff168160010160009054906101000a900473ffffffffffffffffffffffffffffffffffffffff16826002015483600301808054600181600116156101000203166002900480601f0160208091040260200160405190810160405280929190818152602001828054600181600116156101000203166002900480156116d75780601f106116ac576101008083540402835291602001916116d7565b820191906000526020600020905b8154815290600101906020018083116116ba57829003601f168201915b5050505050905094509450945094505092959194509250565b6000600380549050905090565b6001808281548110151561170d57fe5b90600052602060002090600a020160060160006101000a81548160ff0219169083600681111561173957fe5b02179055507f881ad3d67d12341e72d300e5417ed5e7fb5e2aba6497245073a8710c95e0e0d38160018381548110151561176f57fe5b90600052602060002090600a020160060160009054906101000a900460ff16600681111561179957fe5b604051808381526020018281526020019250505060405180910390a150565b60026001828154811015156117c957fe5b90600052602060002090600a020160060160006101000a81548160ff021916908360068111156117f557fe5b02179055507f881ad3d67d12341e72d300e5417ed5e7fb5e2aba6497245073a8710c95e0e0d38160018381548110151561182b57fe5b90600052602060002090600a020160060160009054906101000a900460ff16600681111561185557fe5b604051808381526020018281526020019250505060405180910390a150565b60008060006060600080600080606061188b6131dd565b60018b81548110151561189a57fe5b90600052602060002090600a020161014060405190810160405290816000820160009054906101000a900473ffffffffffffffffffffffffffffffffffffffff1673ffffffffffffffffffffffffffffffffffffffff1673ffffffffffffffffffffffffffffffffffffffff1681526020016001820160009054906101000a900473ffffffffffffffffffffffffffffffffffffffff1673ffffffffffffffffffffffffffffffffffffffff1673ffffffffffffffffffffffffffffffffffffffff16815260200160028201548152602001600382018054806020026020016040519081016040528092919081815260200182805480156119ba57602002820191906000526020600020905b8154815260200190600101908083116119a6575b5050505050815260200160048201548152602001600582015481526020016006820160009054906101000a900460ff1660068111156119f557fe5b6006811115611a0057fe5b81526020016007820154815260200160088201548152602001600982018054600181600116156101000203166002900480601f016020809104026020016040519081016040528092919081815260200182805460018160011615610100020316600290048015611ab15780601f10611a8657610100808354040283529160200191611ab1565b820191906000526020600020905b815481529060010190602001808311611a9457829003601f168201915b5050505050815250509050806000015181602001518260400151836060015184608001518560c001516006811115611ae557fe5b8660e00151876101000151886101200151859550809050995099509950995099509950995099509950509193959799909294969850565b6000600182815481101515611b2d57fe5b90600052602060002090600a020190508060000160009054906101000a900473ffffffffffffffffffffffffffffffffffffffff1673ffffffffffffffffffffffffffffffffffffffff166108fc349081150290604051600060405180830381858888f19350505050158015611ba7573d6000803e3d6000fd5b50670de0b6b3a764000034811515611bbb57fe5b04816005016000828254019250508190555080600401548160050154101515611c605760038160060160006101000a81548160ff02191690836006811115611bff57fe5b02179055507f881ad3d67d12341e72d300e5417ed5e7fb5e2aba6497245073a8710c95e0e0d3828260060160009054906101000a900460ff166006811115611c4357fe5b604051808381526020018281526020019250505060405180910390a15b5050565b606080600080600560008673ffffffffffffffffffffffffffffffffffffffff1673ffffffffffffffffffffffffffffffffffffffff168152602001908152602001600020905080600001816001018260020160009054906101000a900460ff16828054600181600116156101000203166002900480601f016020809104026020016040519081016040528092919081815260200182805460018160011615610100020316600290048015611d5a5780601f10611d2f57610100808354040283529160200191611d5a565b820191906000526020600020905b815481529060010190602001808311611d3d57829003601f168201915b50505050509250818054600181600116156101000203166002900480601f016020809104026020016040519081016040528092919081815260200182805460018160011615610100020316600290048015611df65780601f10611dcb57610100808354040283529160200191611df6565b820191906000526020600020905b815481529060010190602001808311611dd957829003601f168201915b50505050509150935093509350509193909250565b600660205281600052604060002081815481101515611e2657fe5b90600052602060002001600091509150505481565b60606000806000611e4a613268565b600386815481101515611e5957fe5b906000526020600020906004020160806040519081016040529081600082018054600181600116156101000203166002900480601f016020809104026020016040519081016040528092919081815260200182805460018160011615610100020316600290048015611f0c5780601f10611ee157610100808354040283529160200191611f0c565b820191906000526020600020905b815481529060010190602001808311611eef57829003601f168201915b505050505081526020016001820160009054906101000a900473ffffffffffffffffffffffffffffffffffffffff1673ffffffffffffffffffffffffffffffffffffffff1673ffffffffffffffffffffffffffffffffffffffff1681526020016002820160009054906101000a900473ffffffffffffffffffffffffffffffffffffffff1673ffffffffffffffffffffffffffffffffffffffff1673ffffffffffffffffffffffffffffffffffffffff168152602001600382015481525050905080600001518160200151826040015183606001518393509450945094509450509193509193565b611ffc6132bd565b81816000018190525082816020019073ffffffffffffffffffffffffffffffffffffffff16908173ffffffffffffffffffffffffffffffffffffffff168152505060018160400190151590811515815250506002819080600181540180825580915050906001820390600052602060002090600402016000909192909190915060008201518160000190805190602001906120989291906132fe565b5060208201518160010160006101000a81548173ffffffffffffffffffffffffffffffffffffffff021916908373ffffffffffffffffffffffffffffffffffffffff16021790555060408201518160010160146101000a81548160ff02191690831515021790555060608201518160030155505050600460008473ffffffffffffffffffffffffffffffffffffffff1673ffffffffffffffffffffffffffffffffffffffff1681526020019081526020016000206001600280549050039080600181540180825580915050906001820390600052602060002001600090919290919091505550505050565b6060600660008373ffffffffffffffffffffffffffffffffffffffff1673ffffffffffffffffffffffffffffffffffffffff16815260200190815260200160002080548060200260200160405190810160405280929190818152602001828054801561220e57602002820191906000526020600020905b8154815260200190600101908083116121fa575b50505050509050919050565b60038181548110151561222957fe5b9060005260206000209060040201600091509050806000018054600181600116156101000203166002900480601f0160208091040260200160405190810160405280929190818152602001828054600181600116156101000203166002900480156122d55780601f106122aa576101008083540402835291602001916122d5565b820191906000526020600020905b8154815290600101906020018083116122b857829003601f168201915b5050505050908060010160009054906101000a900473ffffffffffffffffffffffffffffffffffffffff16908060020160009054906101000a900473ffffffffffffffffffffffffffffffffffffffff16908060030154905084565b60018181548110151561234057fe5b90600052602060002090600a02016000915090508060000160009054906101000a900473ffffffffffffffffffffffffffffffffffffffff16908060010160009054906101000a900473ffffffffffffffffffffffffffffffffffffffff16908060020154908060040154908060050154908060060160009054906101000a900460ff1690806007015490806008015490806009018054600181600116156101000203166002900480601f0160208091040260200160405190810160405280929190818152602001828054600181600116156101000203166002900480156124695780601f1061243e57610100808354040283529160200191612469565b820191906000526020600020905b81548152906001019060200180831161244c57829003601f168201915b5050505050905089565b60046020528160005260406000208181548110151561248e57fe5b90600052602060002001600091509150505481565b60003073ffffffffffffffffffffffffffffffffffffffff1631905090565b60606000806000806002868154811015156124d957fe5b90600052602060002090600402019050806000018160010160009054906101000a900473ffffffffffffffffffffffffffffffffffffffff168260010160149054906101000a900460ff168360030154838054600181600116156101000203166002900480601f0160208091040260200160405190810160405280929190818152602001828054600181600116156101000203166002900480156125be5780601f10612593576101008083540402835291602001916125be565b820191906000526020600020905b8154815290600101906020018083116125a157829003601f168201915b505050505093509450945094509450509193509193565b60008060006125e261337e565b600080600060018054905089111515612a7e5760018981548110151561260457fe5b90600052602060002090600a020195506002866002015481548110151561262757fe5b906000526020600020906004020194508460010160009054906101000a900473ffffffffffffffffffffffffffffffffffffffff16846000019073ffffffffffffffffffffffffffffffffffffffff16908173ffffffffffffffffffffffffffffffffffffffff16815250508560010160009054906101000a900473ffffffffffffffffffffffffffffffffffffffff16846020019073ffffffffffffffffffffffffffffffffffffffff16908173ffffffffffffffffffffffffffffffffffffffff16815250508560040154846040018181525050878460600181905250838560020160008760030154815260200190815260200160002060008201518160000160006101000a81548173ffffffffffffffffffffffffffffffffffffffff021916908373ffffffffffffffffffffffffffffffffffffffff16021790555060208201518160010160006101000a81548173ffffffffffffffffffffffffffffffffffffffff021916908373ffffffffffffffffffffffffffffffffffffffff1602179055506040820151816002015560608201518160030190805190602001906127d49291906132fe565b509050508460030160008154809291906001019190505550600460008760010160009054906101000a900473ffffffffffffffffffffffffffffffffffffffff1673ffffffffffffffffffffffffffffffffffffffff1673ffffffffffffffffffffffffffffffffffffffff16815260200190815260200160002086600201549080600181540180825580915050906001820390600052602060002001600090919290919091505550600460008660010160009054906101000a900473ffffffffffffffffffffffffffffffffffffffff1673ffffffffffffffffffffffffffffffffffffffff1673ffffffffffffffffffffffffffffffffffffffff1681526020019081526020016000209250600090505b828054905081101561292c578560020154838281548110151561290657fe5b9060005260206000200154141561291f5780915061292c565b80806001019150506128e7565b60018380549050038210156129785782600184805490500381548110151561295057fe5b9060005260206000200154838381548110151561296957fe5b90600052602060002001819055505b8280548091906001900361298c91906133d3565b508560010160009054906101000a900473ffffffffffffffffffffffffffffffffffffffff168560010160006101000a81548173ffffffffffffffffffffffffffffffffffffffff021916908373ffffffffffffffffffffffffffffffffffffffff16021790555060058660060160006101000a81548160ff02191690836006811115612a1557fe5b02179055507f881ad3d67d12341e72d300e5417ed5e7fb5e2aba6497245073a8710c95e0e0d3898760060160009054906101000a900460ff166006811115612a5957fe5b604051808381526020018281526020019250505060405180910390a160019650612a83565b600096505b50505050505092915050565b6000600182815481101515612aa057fe5b90600052602060002090600a02019050670de0b6b3a764000034811515612ac357fe5b04816008016000828254019250508190555080600701548160080154101515612b685760048160060160006101000a81548160ff02191690836006811115612b0757fe5b02179055507f881ad3d67d12341e72d300e5417ed5e7fb5e2aba6497245073a8710c95e0e0d3828260060160009054906101000a900460ff166006811115612b4b57fe5b604051808381526020018281526020019250505060405180910390a15b5050565b6060600660003373ffffffffffffffffffffffffffffffffffffffff1673ffffffffffffffffffffffffffffffffffffffff168152602001908152602001600020805480602002602001604051908101604052809291908181526020018280548015612bf757602002820191906000526020600020905b815481526020019060010190808311612be3575b5050505050905090565b6000612c0b6131dd565b858160400181815250508481608001818152505060008160c001906006811115612c3157fe5b90816006811115612c3e57fe5b81525050601485811515612c4e57fe5b048160e001818152505033816000019073ffffffffffffffffffffffffffffffffffffffff16908173ffffffffffffffffffffffffffffffffffffffff168152505083816020019073ffffffffffffffffffffffffffffffffffffffff16908173ffffffffffffffffffffffffffffffffffffffff1681525050828161012001819052506001819080600181540180825580915050906001820390600052602060002090600a02016000909192909190915060008201518160000160006101000a81548173ffffffffffffffffffffffffffffffffffffffff021916908373ffffffffffffffffffffffffffffffffffffffff16021790555060208201518160010160006101000a81548173ffffffffffffffffffffffffffffffffffffffff021916908373ffffffffffffffffffffffffffffffffffffffff160217905550604082015181600201556060820151816003019080519060200190612db49291906133ff565b506080820151816004015560a0820151816005015560c08201518160060160006101000a81548160ff02191690836006811115612ded57fe5b021790555060e082015181600701556101008201518160080155610120820151816009019080519060200190612e249291906132fe565b50505050600660008573ffffffffffffffffffffffffffffffffffffffff1673ffffffffffffffffffffffffffffffffffffffff168152602001908152602001600020600180805490500390806001815401808255809150509060018203906000526020600020016000909192909190915055507f881ad3d67d12341e72d300e5417ed5e7fb5e2aba6497245073a8710c95e0e0d360018080549050038260c001516006811115612ed157fe5b604051808381526020018281526020019250505060405180910390a16001808054905003915050949350505050565b6000600280549050905090565b6000612f17613268565b6080604051908101604052808681526020013373ffffffffffffffffffffffffffffffffffffffff1681526020018573ffffffffffffffffffffffffffffffffffffffff168152602001848152509050600381908060018154018082558091505090600182039060005260206000209060040201600090919290919091506000820151816000019080519060200190612fb19291906132fe565b5060208201518160010160006101000a81548173ffffffffffffffffffffffffffffffffffffffff021916908373ffffffffffffffffffffffffffffffffffffffff16021790555060408201518160020160006101000a81548173ffffffffffffffffffffffffffffffffffffffff021916908373ffffffffffffffffffffffffffffffffffffffff1602179055506060820151816003015550505060019150509392505050565b60028181548110151561306857fe5b9060005260206000209060040201600091509050806000018054600181600116156101000203166002900480601f0160208091040260200160405190810160405280929190818152602001828054600181600116156101000203166002900480156131145780601f106130e957610100808354040283529160200191613114565b820191906000526020600020905b8154815290600101906020018083116130f757829003601f168201915b5050505050908060010160009054906101000a900473ffffffffffffffffffffffffffffffffffffffff16908060010160149054906101000a900460ff16908060030154905084565b828054600181600116156101000203166002900490600052602060002090601f016020900481019282601f1061319e57805160ff19168380011785556131cc565b828001600101855582156131cc579182015b828111156131cb5782518255916020019190600101906131b0565b5b5090506131d9919061344c565b5090565b61014060405190810160405280600073ffffffffffffffffffffffffffffffffffffffff168152602001600073ffffffffffffffffffffffffffffffffffffffff168152602001600081526020016060815260200160008152602001600081526020016000600681111561324d57fe5b81526020016000815260200160008152602001606081525090565b60806040519081016040528060608152602001600073ffffffffffffffffffffffffffffffffffffffff168152602001600073ffffffffffffffffffffffffffffffffffffffff168152602001600081525090565b60806040519081016040528060608152602001600073ffffffffffffffffffffffffffffffffffffffff168152602001600015158152602001600081525090565b828054600181600116156101000203166002900490600052602060002090601f016020900481019282601f1061333f57805160ff191683800117855561336d565b8280016001018555821561336d579182015b8281111561336c578251825591602001919060010190613351565b5b50905061337a919061344c565b5090565b608060405190810160405280600073ffffffffffffffffffffffffffffffffffffffff168152602001600073ffffffffffffffffffffffffffffffffffffffff16815260200160008152602001606081525090565b8154818355818111156133fa578183600052602060002091820191016133f9919061344c565b5b505050565b82805482825590600052602060002090810192821561343b579160200282015b8281111561343a57825182559160200191906001019061341f565b5b509050613448919061344c565b5090565b61346e91905b8082111561346a576000816000905550600101613452565b5090565b905600a165627a7a72305820c1a2f2896f3ca6b1c61669f976799a73caecbf13e0e69ae2d8b043c5645829a70029",
  "source": "pragma solidity ^0.4.8;\ncontract PropertyChain {\n    address chairperson;\n    enum AgreementState { INITIATED , ACCEPTED, REJECTED ,AMOUNT_PAID, DUTY_PAID , COMPLETED , GOV_REJECTED }\n    \n    struct Agreement {\n        address initiator;\n        address target;\n        uint property;\n        uint[] transactionIndexes;\n        uint amount;\n        uint amountPaid;\n        AgreementState state;\n        uint stampDuty;\n        uint stampDutyAmountPaid;\n        string terms;\n    }\n    \n    struct Transaction {\n        string hash;\n        address source;\n        address target;\n        uint amount;\n    }\n    \n    struct Property {\n        string locationAddress;\n        address owner;\n        bool approved;\n        mapping(uint => PropertyHistory) records;\n        uint recordsSize;\n    }\n    \n    struct PropertyHistory {\n        address seller;\n        address purchaser;\n        uint dealAmount;\n        string dealTimestamp;\n    }\n    \n    struct User {\n        string name;\n        string avatar;\n        bool authority;\n    }\n    \n    event AgreementUpdated(\n        uint id,\n        uint state\n        );\n    \n    Agreement[] public agreements;\n    Property[] public properties;\n    Transaction[] public transactions;\n    mapping(address => uint[]) public propertyIndices;\n    mapping(address => User) public userMapping;\n    mapping(address => uint[]) public agreementRequests;\n    \n    constructor() public {\n        chairperson = msg.sender;\n    }\n    \n    function getAgreementsLength() public constant returns(uint){\n        return(agreements.length);\n    }\n    \n    function getPropertiesLength() public constant returns(uint){\n        return(properties.length);\n    }\n    \n    \n    function getAgreementRequests(address _a) public constant returns(uint[]){\n        return(agreementRequests[_a]);\n    }\n    \n    function createTransaction(string _hash,address _target,uint _amount) public returns(bool _successful){\n        Transaction memory transaction = Transaction({hash: _hash,source: msg.sender,target: _target,amount: _amount});\n        transactions.push(transaction);\n        return true;\n    }\n    \n    function getTransactionCount() public constant returns(uint _count) {\n        return transactions.length;\n    }\n    \n    function getTransactionByIndex(uint _index) public constant returns(string _hash,address _source,address _target,uint _amount) {\n        Transaction memory transaction = transactions[_index];\n        return(transaction.hash,transaction.source,transaction.target,transaction.amount);\n    }\n    \n    function transferProperty(uint _agreement_index,string _deal_timestamp) public returns(bool _successful){\n        if(_agreement_index <= agreements.length){\n            Agreement storage agreement = agreements[_agreement_index];\n            Property storage property = properties[agreement.property];\n            PropertyHistory memory propertyHistory;\n            propertyHistory.seller = property.owner;\n            propertyHistory.purchaser = agreement.target;\n            propertyHistory.dealAmount = agreement.amount;\n            propertyHistory.dealTimestamp = _deal_timestamp;\n            property.records[property.recordsSize] = propertyHistory;\n            property.recordsSize++;\n            propertyIndices[agreement.target].push(agreement.property);\n            uint[] storage prop = propertyIndices[property.owner];\n            uint indexToBeDeleted;\n            for (uint i = 0; i < prop.length; i++) {\n              if (prop[i] == agreement.property) {\n                indexToBeDeleted = i;\n                break;\n              }\n            }\n            // if index to be deleted is not the last index, swap position.\n            if (indexToBeDeleted < prop.length - 1) {\n              prop[indexToBeDeleted] = prop[prop.length - 1];\n            }\n            prop.length--;\n            property.owner = agreement.target;\n            agreement.state = AgreementState.COMPLETED;\n            emit AgreementUpdated(_agreement_index,uint(agreement.state));\n            return true;\n        }\n        return false;\n    }\n    \n    function seedProperties(address _user,string _address) public {\n        Property memory property;\n        property.locationAddress =  _address ;\n        property.owner = _user ;\n        property.approved = true;\n        properties.push(property);\n        propertyIndices[_user].push(properties.length -1 );\n    }\n    \n    function getUserPropertyIndices(address _user) public constant returns(uint[]){\n        return propertyIndices[_user];\n    }\n    \n    function getPropertyByIndex(uint _index) public constant returns(string,address,bool,uint){\n        Property storage prop = properties[_index];\n        return(prop.locationAddress,prop.owner,prop.approved,prop.recordsSize);\n    }\n    \n    function getRecordByIndex(uint _property_index,uint _index) public constant returns(address,address,uint,string){\n        PropertyHistory storage ph = properties[_property_index].records[_index];\n        return(ph.seller,ph.purchaser,ph.dealAmount,ph.dealTimestamp);\n    }\n    \n    function getUser(address _user) public constant returns(string,string,bool) {\n        User storage user = userMapping[_user]; \n        return(user.name,user.avatar,user.authority);\n    }\n    \n    function updateUser(address _user,string _name,string _avatar) public {\n        User storage user = userMapping[_user];\n        user.name = _name;\n        user.avatar = _avatar;\n    }\n    \n    function makeAuthority(address _user) public {\n        userMapping[_user].authority = true;\n    }\n    \n    function intiateAgreement(uint _property_index,uint _amount,address _buyer,string _terms) public returns(uint _id){\n        Agreement memory a;\n        a.property = _property_index;\n        a.amount = _amount;\n        a.state = AgreementState.INITIATED;\n        a.stampDuty = _amount / 20;\n        a.initiator = msg.sender;\n        a.target = _buyer;\n        a.terms = _terms;\n        agreements.push(a);\n        agreementRequests[_buyer].push(agreements.length -1);\n        emit AgreementUpdated(agreements.length -1,uint(a.state));\n        return agreements.length - 1;\n    }\n    \n    function getAgreementRequestsIndices() public constant returns(uint[]){\n        return agreementRequests[msg.sender];\n    }\n    \n    function getAgreementByIndex(uint _index) public constant returns(address,address,uint,uint[],uint,uint,uint,uint,string){\n        Agreement memory a = agreements[_index];\n        return(a.initiator,a.target,a.property,a.transactionIndexes,a.amount,uint(a.state),a.stampDuty,a.stampDutyAmountPaid,a.terms);\n    }\n    \n    function acceptAgreement(uint index) public {\n       agreements[index].state = AgreementState.ACCEPTED; \n       emit AgreementUpdated(index,uint(agreements[index].state));\n    }\n    \n    function rejectAgreement(uint index) public {\n       agreements[index].state = AgreementState.REJECTED; \n       emit AgreementUpdated(index,uint(agreements[index].state));\n    }\n    \n    function paySeller(uint index) public payable {\n        Agreement storage a = agreements[index];\n        a.initiator.transfer(msg.value);\n        a.amountPaid += (msg.value/1000000000000000000);\n        if(a.amountPaid >= a.amount){\n          a.state = AgreementState.AMOUNT_PAID;\n          emit AgreementUpdated(index,uint(a.state));\n        }\n    }\n    \n    function pay_duty(uint index) public payable{\n      Agreement storage a = agreements[index];\n      a.stampDutyAmountPaid += (msg.value/1000000000000000000);\n      if(a.stampDutyAmountPaid >= a.stampDuty){\n          a.state = AgreementState.DUTY_PAID;\n          emit AgreementUpdated(index,uint(a.state));\n      }\n    }\n    \n    function getGovBalance() public constant returns(uint){\n        return address(this).balance;\n    }\n    \n}",
  "sourcePath": "/Users/shubham/Projects/hackathons/cons/src/contracts/PropertyChain.sol",
  "compiler": {
    "name": "solc",
    "version": "0.4.24+commit.e67f0147.Emscripten.clang"
  },
  "schemaVersion": "2.0.1",
  "updatedAt": "2018-07-14T10:33:13.490Z"
}