{
  "contractName": "PropertyChain",
  "abi": [
    {
      "constant": true,
      "inputs": [
        {
          "name": "",
          "type": "address"
        }
      ],
      "name": "userMapping",
      "outputs": [
        {
          "name": "name",
          "type": "string"
        },
        {
          "name": "avatar",
          "type": "string"
        },
        {
          "name": "authority",
          "type": "bool"
        }
      ],
      "payable": false,
      "stateMutability": "view",
      "type": "function"
    },
    {
      "constant": true,
      "inputs": [
        {
          "name": "",
          "type": "address"
        },
        {
          "name": "",
          "type": "uint256"
        }
      ],
      "name": "agreementRequests",
      "outputs": [
        {
          "name": "",
          "type": "uint256"
        }
      ],
      "payable": false,
      "stateMutability": "view",
      "type": "function"
    },
    {
      "constant": true,
      "inputs": [
        {
          "name": "",
          "type": "uint256"
        }
      ],
      "name": "transactions",
      "outputs": [
        {
          "name": "hash",
          "type": "string"
        },
        {
          "name": "source",
          "type": "address"
        },
        {
          "name": "target",
          "type": "address"
        },
        {
          "name": "amount",
          "type": "uint256"
        }
      ],
      "payable": false,
      "stateMutability": "view",
      "type": "function"
    },
    {
      "constant": true,
      "inputs": [
        {
          "name": "",
          "type": "uint256"
        }
      ],
      "name": "agreements",
      "outputs": [
        {
          "name": "initiator",
          "type": "address"
        },
        {
          "name": "target",
          "type": "address"
        },
        {
          "name": "property",
          "type": "uint256"
        },
        {
          "name": "amount",
          "type": "uint256"
        },
        {
          "name": "amountPaid",
          "type": "uint256"
        },
        {
          "name": "state",
          "type": "uint8"
        },
        {
          "name": "stampDuty",
          "type": "uint256"
        },
        {
          "name": "stampDutyAmountPaid",
          "type": "uint256"
        },
        {
          "name": "terms",
          "type": "string"
        }
      ],
      "payable": false,
      "stateMutability": "view",
      "type": "function"
    },
    {
      "constant": true,
      "inputs": [
        {
          "name": "",
          "type": "address"
        },
        {
          "name": "",
          "type": "uint256"
        }
      ],
      "name": "propertyIndices",
      "outputs": [
        {
          "name": "",
          "type": "uint256"
        }
      ],
      "payable": false,
      "stateMutability": "view",
      "type": "function"
    },
    {
      "constant": true,
      "inputs": [
        {
          "name": "",
          "type": "uint256"
        }
      ],
      "name": "properties",
      "outputs": [
        {
          "name": "locationAddress",
          "type": "string"
        },
        {
          "name": "owner",
          "type": "address"
        },
        {
          "name": "approved",
          "type": "bool"
        },
        {
          "name": "recordsSize",
          "type": "uint256"
        }
      ],
      "payable": false,
      "stateMutability": "view",
      "type": "function"
    },
    {
      "inputs": [],
      "payable": false,
      "stateMutability": "nonpayable",
      "type": "constructor"
    },
    {
      "anonymous": false,
      "inputs": [
        {
          "indexed": false,
          "name": "id",
          "type": "uint256"
        },
        {
          "indexed": false,
          "name": "state",
          "type": "uint256"
        }
      ],
      "name": "AgreementUpdated",
      "type": "event"
    },
    {
      "constant": false,
      "inputs": [
        {
          "name": "_hash",
          "type": "string"
        },
        {
          "name": "_target",
          "type": "address"
        },
        {
          "name": "_amount",
          "type": "uint256"
        }
      ],
      "name": "createTransaction",
      "outputs": [
        {
          "name": "_successful",
          "type": "bool"
        }
      ],
      "payable": false,
      "stateMutability": "nonpayable",
      "type": "function"
    },
    {
      "constant": true,
      "inputs": [],
      "name": "getTransactionCount",
      "outputs": [
        {
          "name": "_count",
          "type": "uint256"
        }
      ],
      "payable": false,
      "stateMutability": "view",
      "type": "function"
    },
    {
      "constant": true,
      "inputs": [
        {
          "name": "_index",
          "type": "uint256"
        }
      ],
      "name": "getTransactionByIndex",
      "outputs": [
        {
          "name": "_hash",
          "type": "string"
        },
        {
          "name": "_source",
          "type": "address"
        },
        {
          "name": "_target",
          "type": "address"
        },
        {
          "name": "_amount",
          "type": "uint256"
        }
      ],
      "payable": false,
      "stateMutability": "view",
      "type": "function"
    },
    {
      "constant": false,
      "inputs": [
        {
          "name": "_agreement_index",
          "type": "uint256"
        },
        {
          "name": "_deal_timestamp",
          "type": "string"
        }
      ],
      "name": "transferProperty",
      "outputs": [
        {
          "name": "_successful",
          "type": "bool"
        }
      ],
      "payable": false,
      "stateMutability": "nonpayable",
      "type": "function"
    },
    {
      "constant": false,
      "inputs": [
        {
          "name": "_user",
          "type": "address"
        },
        {
          "name": "_address",
          "type": "string"
        }
      ],
      "name": "seedProperties",
      "outputs": [],
      "payable": false,
      "stateMutability": "nonpayable",
      "type": "function"
    },
    {
      "constant": true,
      "inputs": [
        {
          "name": "_user",
          "type": "address"
        }
      ],
      "name": "getUserPropertyIndices",
      "outputs": [
        {
          "name": "",
          "type": "uint256[]"
        }
      ],
      "payable": false,
      "stateMutability": "view",
      "type": "function"
    },
    {
      "constant": true,
      "inputs": [
        {
          "name": "_index",
          "type": "uint256"
        }
      ],
      "name": "getPropertyByIndex",
      "outputs": [
        {
          "name": "",
          "type": "string"
        },
        {
          "name": "",
          "type": "address"
        },
        {
          "name": "",
          "type": "bool"
        },
        {
          "name": "",
          "type": "uint256"
        }
      ],
      "payable": false,
      "stateMutability": "view",
      "type": "function"
    },
    {
      "constant": true,
      "inputs": [
        {
          "name": "_property_index",
          "type": "uint256"
        },
        {
          "name": "_index",
          "type": "uint256"
        }
      ],
      "name": "getRecordByIndex",
      "outputs": [
        {
          "name": "",
          "type": "address"
        },
        {
          "name": "",
          "type": "address"
        },
        {
          "name": "",
          "type": "uint256"
        },
        {
          "name": "",
          "type": "string"
        }
      ],
      "payable": false,
      "stateMutability": "view",
      "type": "function"
    },
    {
      "constant": true,
      "inputs": [
        {
          "name": "_user",
          "type": "address"
        }
      ],
      "name": "getUser",
      "outputs": [
        {
          "name": "",
          "type": "string"
        },
        {
          "name": "",
          "type": "string"
        },
        {
          "name": "",
          "type": "bool"
        }
      ],
      "payable": false,
      "stateMutability": "view",
      "type": "function"
    },
    {
      "constant": false,
      "inputs": [
        {
          "name": "_user",
          "type": "address"
        },
        {
          "name": "_name",
          "type": "string"
        },
        {
          "name": "_avatar",
          "type": "string"
        }
      ],
      "name": "updateUser",
      "outputs": [],
      "payable": false,
      "stateMutability": "nonpayable",
      "type": "function"
    },
    {
      "constant": false,
      "inputs": [
        {
          "name": "_user",
          "type": "address"
        }
      ],
      "name": "makeAuthority",
      "outputs": [],
      "payable": false,
      "stateMutability": "nonpayable",
      "type": "function"
    },
    {
      "constant": false,
      "inputs": [
        {
          "name": "_property_index",
          "type": "uint256"
        },
        {
          "name": "_amount",
          "type": "uint256"
        },
        {
          "name": "_buyer",
          "type": "address"
        },
        {
          "name": "_terms",
          "type": "string"
        }
      ],
      "name": "intiateAgreement",
      "outputs": [
        {
          "name": "_id",
          "type": "uint256"
        }
      ],
      "payable": false,
      "stateMutability": "nonpayable",
      "type": "function"
    },
    {
      "constant": true,
      "inputs": [],
      "name": "getAgreementRequestsIndices",
      "outputs": [
        {
          "name": "",
          "type": "uint256[]"
        }
      ],
      "payable": false,
      "stateMutability": "view",
      "type": "function"
    },
    {
      "constant": true,
      "inputs": [
        {
          "name": "_index",
          "type": "uint256"
        }
      ],
      "name": "getAgreementByIndex",
      "outputs": [
        {
          "name": "",
          "type": "address"
        },
        {
          "name": "",
          "type": "address"
        },
        {
          "name": "",
          "type": "uint256"
        },
        {
          "name": "",
          "type": "uint256[]"
        },
        {
          "name": "",
          "type": "uint256"
        },
        {
          "name": "",
          "type": "uint256"
        },
        {
          "name": "",
          "type": "uint256"
        },
        {
          "name": "",
          "type": "uint256"
        },
        {
          "name": "",
          "type": "string"
        }
      ],
      "payable": false,
      "stateMutability": "view",
      "type": "function"
    },
    {
      "constant": false,
      "inputs": [
        {
          "name": "index",
          "type": "uint256"
        }
      ],
      "name": "acceptAgreement",
      "outputs": [],
      "payable": false,
      "stateMutability": "nonpayable",
      "type": "function"
    },
    {
      "constant": false,
      "inputs": [
        {
          "name": "index",
          "type": "uint256"
        }
      ],
      "name": "rejectAgreement",
      "outputs": [],
      "payable": false,
      "stateMutability": "nonpayable",
      "type": "function"
    },
    {
      "constant": false,
      "inputs": [
        {
          "name": "index",
          "type": "uint256"
        }
      ],
      "name": "paySeller",
      "outputs": [],
      "payable": true,
      "stateMutability": "payable",
      "type": "function"
    },
    {
      "constant": false,
      "inputs": [
        {
          "name": "index",
          "type": "uint256"
        }
      ],
      "name": "pay_duty",
      "outputs": [],
      "payable": true,
      "stateMutability": "payable",
      "type": "function"
    },
    {
      "constant": true,
      "inputs": [],
      "name": "getGovBalance",
      "outputs": [
        {
          "name": "",
          "type": "uint256"
        }
      ],
      "payable": false,
      "stateMutability": "view",
      "type": "function"
    }
  ],
  "bytecode": "0x608060405234801561001057600080fd5b50336000806101000a81548173ffffffffffffffffffffffffffffffffffffffff021916908373ffffffffffffffffffffffffffffffffffffffff1602179055506132dd806100606000396000f300608060405260043610610149576000357c0100000000000000000000000000000000000000000000000000000000900463ffffffff16806303c3bc4f1461014e5780630f27426c1461019157806310e8b22d14610229578063118b9535146102f8578063253654241461042b5780632e7700f0146105485780633ae776d214610573578063457c8816146105a057806362272f95146105cd57806368302467146107445780636f77926b146107645780637f33322014610897578063869152e7146108f857806387b28c4814610a0b5780639ace38c214610a94578063bd14de9614610ba7578063ccea3f5714610ceb578063d3cd0dc914610d4c578063d41861b314610d77578063d654a2a914610e62578063e29da4c014610eed578063e838810714610f0d578063eef3e68d14610f79578063f40b2a4a1461102a578063f7b10808146110d5575b600080fd5b34801561015a57600080fd5b5061018f600480360381019080803573ffffffffffffffffffffffffffffffffffffffff1690602001909291905050506111c0565b005b34801561019d57600080fd5b506101d2600480360381019080803573ffffffffffffffffffffffffffffffffffffffff16906020019092919050505061121e565b6040518080602001828103825283818151815260200191508051906020019060200280838360005b838110156102155780820151818401526020810190506101fa565b505050509050019250505060405180910390f35b34801561023557600080fd5b506102f6600480360381019080803573ffffffffffffffffffffffffffffffffffffffff169060200190929190803590602001908201803590602001908080601f0160208091040260200160405190810160405280939291908181526020018383808284378201915050505050509192919290803590602001908201803590602001908080601f01602080910402602001604051908101604052809392919081815260200183838082843782019150505050505091929192905050506112b5565b005b34801561030457600080fd5b50610339600480360381019080803573ffffffffffffffffffffffffffffffffffffffff169060200190929190505050611330565b60405180806020018060200184151515158152602001838103835286818151815260200191508051906020019080838360005b8381101561038757808201518184015260208101905061036c565b50505050905090810190601f1680156103b45780820380516001836020036101000a031916815260200191505b50838103825285818151815260200191508051906020019080838360005b838110156103ed5780820151818401526020810190506103d2565b50505050905090810190601f16801561041a5780820380516001836020036101000a031916815260200191505b509550505050505060405180910390f35b34801561043757600080fd5b506104606004803603810190808035906020019092919080359060200190929190505050611497565b604051808573ffffffffffffffffffffffffffffffffffffffff1673ffffffffffffffffffffffffffffffffffffffff1681526020018473ffffffffffffffffffffffffffffffffffffffff1673ffffffffffffffffffffffffffffffffffffffff16815260200183815260200180602001828103825283818151815260200191508051906020019080838360005b8381101561050a5780820151818401526020810190506104ef565b50505050905090810190601f1680156105375780820380516001836020036101000a031916815260200191505b509550505050505060405180910390f35b34801561055457600080fd5b5061055d6115d4565b6040518082815260200191505060405180910390f35b34801561057f57600080fd5b5061059e600480360381019080803590602001909291905050506115e1565b005b3480156105ac57600080fd5b506105cb6004803603810190808035906020019092919050505061169c565b005b3480156105d957600080fd5b506105f860048036038101908080359060200190929190505050611758565b604051808a73ffffffffffffffffffffffffffffffffffffffff1673ffffffffffffffffffffffffffffffffffffffff1681526020018973ffffffffffffffffffffffffffffffffffffffff1673ffffffffffffffffffffffffffffffffffffffff1681526020018881526020018060200187815260200186815260200185815260200184815260200180602001838103835289818151815260200191508051906020019060200280838360005b838110156106c15780820151818401526020810190506106a6565b50505050905001838103825284818151815260200191508051906020019080838360005b838110156107005780820151818401526020810190506106e5565b50505050905090810190601f16801561072d5780820380516001836020036101000a031916815260200191505b509b50505050505050505050505060405180910390f35b61076260048036038101908080359060200190929190505050611a00565b005b34801561077057600080fd5b506107a5600480360381019080803573ffffffffffffffffffffffffffffffffffffffff169060200190929190505050611b48565b60405180806020018060200184151515158152602001838103835286818151815260200191508051906020019080838360005b838110156107f35780820151818401526020810190506107d8565b50505050905090810190601f1680156108205780820380516001836020036101000a031916815260200191505b50838103825285818151815260200191508051906020019080838360005b8381101561085957808201518184015260208101905061083e565b50505050905090810190601f1680156108865780820380516001836020036101000a031916815260200191505b509550505050505060405180910390f35b3480156108a357600080fd5b506108e2600480360381019080803573ffffffffffffffffffffffffffffffffffffffff16906020019092919080359060200190929190505050611cef565b6040518082815260200191505060405180910390f35b34801561090457600080fd5b5061092360048036038101908080359060200190929190505050611d1f565b60405180806020018573ffffffffffffffffffffffffffffffffffffffff1673ffffffffffffffffffffffffffffffffffffffff1681526020018473ffffffffffffffffffffffffffffffffffffffff1673ffffffffffffffffffffffffffffffffffffffff168152602001838152602001828103825286818151815260200191508051906020019080838360005b838110156109cd5780820151818401526020810190506109b2565b50505050905090810190601f1680156109fa5780820380516001836020036101000a031916815260200191505b509550505050505060405180910390f35b348015610a1757600080fd5b50610a92600480360381019080803573ffffffffffffffffffffffffffffffffffffffff169060200190929190803590602001908201803590602001908080601f0160208091040260200160405190810160405280939291908181526020018383808284378201915050505050509192919290505050611ed8565b005b348015610aa057600080fd5b50610abf60048036038101908080359060200190929190505050612067565b60405180806020018573ffffffffffffffffffffffffffffffffffffffff1673ffffffffffffffffffffffffffffffffffffffff1681526020018473ffffffffffffffffffffffffffffffffffffffff1673ffffffffffffffffffffffffffffffffffffffff168152602001838152602001828103825286818151815260200191508051906020019080838360005b83811015610b69578082015181840152602081019050610b4e565b50505050905090810190601f168015610b965780820380516001836020036101000a031916815260200191505b509550505050505060405180910390f35b348015610bb357600080fd5b50610bd26004803603810190808035906020019092919050505061217e565b604051808a73ffffffffffffffffffffffffffffffffffffffff1673ffffffffffffffffffffffffffffffffffffffff1681526020018973ffffffffffffffffffffffffffffffffffffffff1673ffffffffffffffffffffffffffffffffffffffff168152602001888152602001878152602001868152602001856006811115610c5857fe5b60ff16815260200184815260200183815260200180602001828103825283818151815260200191508051906020019080838360005b83811015610ca8578082015181840152602081019050610c8d565b50505050905090810190601f168015610cd55780820380516001836020036101000a031916815260200191505b509a505050505050505050505060405180910390f35b348015610cf757600080fd5b50610d36600480360381019080803573ffffffffffffffffffffffffffffffffffffffff169060200190929190803590602001909291905050506122c0565b6040518082815260200191505060405180910390f35b348015610d5857600080fd5b50610d616122f0565b6040518082815260200191505060405180910390f35b348015610d8357600080fd5b50610da26004803603810190808035906020019092919050505061230f565b60405180806020018573ffffffffffffffffffffffffffffffffffffffff1673ffffffffffffffffffffffffffffffffffffffff16815260200184151515158152602001838152602001828103825286818151815260200191508051906020019080838360005b83811015610e24578082015181840152602081019050610e09565b50505050905090810190601f168015610e515780820380516001836020036101000a031916815260200191505b509550505050505060405180910390f35b348015610e6e57600080fd5b50610ed360048036038101908080359060200190929190803590602001908201803590602001908080601f0160208091040260200160405190810160405280939291908181526020018383808284378201915050505050509192919290505050612422565b604051808215151515815260200191505060405180910390f35b610f0b600480360381019080803590602001909291905050506128dc565b005b348015610f1957600080fd5b50610f226129b9565b6040518080602001828103825283818151815260200191508051906020019060200280838360005b83811015610f65578082015181840152602081019050610f4a565b505050509050019250505060405180910390f35b348015610f8557600080fd5b506110146004803603810190808035906020019092919080359060200190929190803573ffffffffffffffffffffffffffffffffffffffff169060200190929190803590602001908201803590602001908080601f0160208091040260200160405190810160405280939291908181526020018383808284378201915050505050509192919290505050612a4e565b6040518082815260200191505060405180910390f35b34801561103657600080fd5b506110bb600480360381019080803590602001908201803590602001908080601f0160208091040260200160405190810160405280939291908181526020018383808284378201915050505050509192919290803573ffffffffffffffffffffffffffffffffffffffff16906020019092919080359060200190929190505050612d4d565b604051808215151515815260200191505060405180910390f35b3480156110e157600080fd5b5061110060048036038101908080359060200190929190505050612e99565b60405180806020018573ffffffffffffffffffffffffffffffffffffffff1673ffffffffffffffffffffffffffffffffffffffff16815260200184151515158152602001838152602001828103825286818151815260200191508051906020019080838360005b83811015611182578082015181840152602081019050611167565b50505050905090810190601f1680156111af5780820380516001836020036101000a031916815260200191505b509550505050505060405180910390f35b6001600560008373ffffffffffffffffffffffffffffffffffffffff1673ffffffffffffffffffffffffffffffffffffffff16815260200190815260200160002060020160006101000a81548160ff02191690831515021790555050565b6060600460008373ffffffffffffffffffffffffffffffffffffffff1673ffffffffffffffffffffffffffffffffffffffff1681526020019081526020016000208054806020026020016040519081016040528092919081815260200182805480156112a957602002820191906000526020600020905b815481526020019060010190808311611295575b50505050509050919050565b6000600560008573ffffffffffffffffffffffffffffffffffffffff1673ffffffffffffffffffffffffffffffffffffffff168152602001908152602001600020905082816000019080519060200190611310929190612f9d565b5081816001019080519060200190611329929190612f9d565b5050505050565b6005602052806000526040600020600091509050806000018054600181600116156101000203166002900480601f0160208091040260200160405190810160405280929190818152602001828054600181600116156101000203166002900480156113dc5780601f106113b1576101008083540402835291602001916113dc565b820191906000526020600020905b8154815290600101906020018083116113bf57829003601f168201915b505050505090806001018054600181600116156101000203166002900480601f01602080910402602001604051908101604052809291908181526020018280546001816001161561010002031660029004801561147a5780601f1061144f5761010080835404028352916020019161147a565b820191906000526020600020905b81548152906001019060200180831161145d57829003601f168201915b5050505050908060020160009054906101000a900460ff16905083565b6000806000606060006002878154811015156114af57fe5b9060005260206000209060040201600201600087815260200190815260200160002090508060000160009054906101000a900473ffffffffffffffffffffffffffffffffffffffff168160010160009054906101000a900473ffffffffffffffffffffffffffffffffffffffff16826002015483600301808054600181600116156101000203166002900480601f0160208091040260200160405190810160405280929190818152602001828054600181600116156101000203166002900480156115bb5780601f10611590576101008083540402835291602001916115bb565b820191906000526020600020905b81548152906001019060200180831161159e57829003601f168201915b5050505050905094509450945094505092959194509250565b6000600380549050905090565b600180828154811015156115f157fe5b90600052602060002090600a020160060160006101000a81548160ff0219169083600681111561161d57fe5b02179055507f881ad3d67d12341e72d300e5417ed5e7fb5e2aba6497245073a8710c95e0e0d38160018381548110151561165357fe5b90600052602060002090600a020160060160009054906101000a900460ff16600681111561167d57fe5b604051808381526020018281526020019250505060405180910390a150565b60026001828154811015156116ad57fe5b90600052602060002090600a020160060160006101000a81548160ff021916908360068111156116d957fe5b02179055507f881ad3d67d12341e72d300e5417ed5e7fb5e2aba6497245073a8710c95e0e0d38160018381548110151561170f57fe5b90600052602060002090600a020160060160009054906101000a900460ff16600681111561173957fe5b604051808381526020018281526020019250505060405180910390a150565b60008060006060600080600080606061176f61301d565b60018b81548110151561177e57fe5b90600052602060002090600a020161014060405190810160405290816000820160009054906101000a900473ffffffffffffffffffffffffffffffffffffffff1673ffffffffffffffffffffffffffffffffffffffff1673ffffffffffffffffffffffffffffffffffffffff1681526020016001820160009054906101000a900473ffffffffffffffffffffffffffffffffffffffff1673ffffffffffffffffffffffffffffffffffffffff1673ffffffffffffffffffffffffffffffffffffffff168152602001600282015481526020016003820180548060200260200160405190810160405280929190818152602001828054801561189e57602002820191906000526020600020905b81548152602001906001019080831161188a575b5050505050815260200160048201548152602001600582015481526020016006820160009054906101000a900460ff1660068111156118d957fe5b60068111156118e457fe5b81526020016007820154815260200160088201548152602001600982018054600181600116156101000203166002900480601f0160208091040260200160405190810160405280929190818152602001828054600181600116156101000203166002900480156119955780601f1061196a57610100808354040283529160200191611995565b820191906000526020600020905b81548152906001019060200180831161197857829003601f168201915b5050505050815250509050806000015181602001518260400151836060015184608001518560c0015160068111156119c957fe5b8660e00151876101000151886101200151859550809050995099509950995099509950995099509950509193959799909294969850565b6000600182815481101515611a1157fe5b90600052602060002090600a020190508060000160009054906101000a900473ffffffffffffffffffffffffffffffffffffffff1673ffffffffffffffffffffffffffffffffffffffff166108fc349081150290604051600060405180830381858888f19350505050158015611a8b573d6000803e3d6000fd5b50670de0b6b3a764000034811515611a9f57fe5b04816005016000828254019250508190555080600401548160050154101515611b445760038160060160006101000a81548160ff02191690836006811115611ae357fe5b02179055507f881ad3d67d12341e72d300e5417ed5e7fb5e2aba6497245073a8710c95e0e0d3828260060160009054906101000a900460ff166006811115611b2757fe5b604051808381526020018281526020019250505060405180910390a15b5050565b606080600080600560008673ffffffffffffffffffffffffffffffffffffffff1673ffffffffffffffffffffffffffffffffffffffff168152602001908152602001600020905080600001816001018260020160009054906101000a900460ff16828054600181600116156101000203166002900480601f016020809104026020016040519081016040528092919081815260200182805460018160011615610100020316600290048015611c3e5780601f10611c1357610100808354040283529160200191611c3e565b820191906000526020600020905b815481529060010190602001808311611c2157829003601f168201915b50505050509250818054600181600116156101000203166002900480601f016020809104026020016040519081016040528092919081815260200182805460018160011615610100020316600290048015611cda5780601f10611caf57610100808354040283529160200191611cda565b820191906000526020600020905b815481529060010190602001808311611cbd57829003601f168201915b50505050509150935093509350509193909250565b600660205281600052604060002081815481101515611d0a57fe5b90600052602060002001600091509150505481565b60606000806000611d2e6130a8565b600386815481101515611d3d57fe5b906000526020600020906004020160806040519081016040529081600082018054600181600116156101000203166002900480601f016020809104026020016040519081016040528092919081815260200182805460018160011615610100020316600290048015611df05780601f10611dc557610100808354040283529160200191611df0565b820191906000526020600020905b815481529060010190602001808311611dd357829003601f168201915b505050505081526020016001820160009054906101000a900473ffffffffffffffffffffffffffffffffffffffff1673ffffffffffffffffffffffffffffffffffffffff1673ffffffffffffffffffffffffffffffffffffffff1681526020016002820160009054906101000a900473ffffffffffffffffffffffffffffffffffffffff1673ffffffffffffffffffffffffffffffffffffffff1673ffffffffffffffffffffffffffffffffffffffff168152602001600382015481525050905080600001518160200151826040015183606001518393509450945094509450509193509193565b611ee06130fd565b81816000018190525082816020019073ffffffffffffffffffffffffffffffffffffffff16908173ffffffffffffffffffffffffffffffffffffffff16815250506001816040019015159081151581525050600281908060018154018082558091505090600182039060005260206000209060040201600090919290919091506000820151816000019080519060200190611f7c92919061313e565b5060208201518160010160006101000a81548173ffffffffffffffffffffffffffffffffffffffff021916908373ffffffffffffffffffffffffffffffffffffffff16021790555060408201518160010160146101000a81548160ff02191690831515021790555060608201518160030155505050600460008473ffffffffffffffffffffffffffffffffffffffff1673ffffffffffffffffffffffffffffffffffffffff1681526020019081526020016000206001600280549050039080600181540180825580915050906001820390600052602060002001600090919290919091505550505050565b60038181548110151561207657fe5b9060005260206000209060040201600091509050806000018054600181600116156101000203166002900480601f0160208091040260200160405190810160405280929190818152602001828054600181600116156101000203166002900480156121225780601f106120f757610100808354040283529160200191612122565b820191906000526020600020905b81548152906001019060200180831161210557829003601f168201915b5050505050908060010160009054906101000a900473ffffffffffffffffffffffffffffffffffffffff16908060020160009054906101000a900473ffffffffffffffffffffffffffffffffffffffff16908060030154905084565b60018181548110151561218d57fe5b90600052602060002090600a02016000915090508060000160009054906101000a900473ffffffffffffffffffffffffffffffffffffffff16908060010160009054906101000a900473ffffffffffffffffffffffffffffffffffffffff16908060020154908060040154908060050154908060060160009054906101000a900460ff1690806007015490806008015490806009018054600181600116156101000203166002900480601f0160208091040260200160405190810160405280929190818152602001828054600181600116156101000203166002900480156122b65780601f1061228b576101008083540402835291602001916122b6565b820191906000526020600020905b81548152906001019060200180831161229957829003601f168201915b5050505050905089565b6004602052816000526040600020818154811015156122db57fe5b90600052602060002001600091509150505481565b60003073ffffffffffffffffffffffffffffffffffffffff1631905090565b606060008060008060028681548110151561232657fe5b90600052602060002090600402019050806000018160010160009054906101000a900473ffffffffffffffffffffffffffffffffffffffff168260010160149054906101000a900460ff168360030154838054600181600116156101000203166002900480601f01602080910402602001604051908101604052809291908181526020018280546001816001161561010002031660029004801561240b5780601f106123e05761010080835404028352916020019161240b565b820191906000526020600020905b8154815290600101906020018083116123ee57829003601f168201915b505050505093509450945094509450509193509193565b600080600061242f6131be565b6000806000600180549050891115156128cb5760018981548110151561245157fe5b90600052602060002090600a020195506002866002015481548110151561247457fe5b906000526020600020906004020194508460010160009054906101000a900473ffffffffffffffffffffffffffffffffffffffff16846000019073ffffffffffffffffffffffffffffffffffffffff16908173ffffffffffffffffffffffffffffffffffffffff16815250508560010160009054906101000a900473ffffffffffffffffffffffffffffffffffffffff16846020019073ffffffffffffffffffffffffffffffffffffffff16908173ffffffffffffffffffffffffffffffffffffffff16815250508560040154846040018181525050878460600181905250838560020160008760030154815260200190815260200160002060008201518160000160006101000a81548173ffffffffffffffffffffffffffffffffffffffff021916908373ffffffffffffffffffffffffffffffffffffffff16021790555060208201518160010160006101000a81548173ffffffffffffffffffffffffffffffffffffffff021916908373ffffffffffffffffffffffffffffffffffffffff16021790555060408201518160020155606082015181600301908051906020019061262192919061313e565b509050508460030160008154809291906001019190505550600460008760010160009054906101000a900473ffffffffffffffffffffffffffffffffffffffff1673ffffffffffffffffffffffffffffffffffffffff1673ffffffffffffffffffffffffffffffffffffffff16815260200190815260200160002086600201549080600181540180825580915050906001820390600052602060002001600090919290919091505550600460008660010160009054906101000a900473ffffffffffffffffffffffffffffffffffffffff1673ffffffffffffffffffffffffffffffffffffffff1673ffffffffffffffffffffffffffffffffffffffff1681526020019081526020016000209250600090505b8280549050811015612779578560020154838281548110151561275357fe5b9060005260206000200154141561276c57809150612779565b8080600101915050612734565b60018380549050038210156127c55782600184805490500381548110151561279d57fe5b906000526020600020015483838154811015156127b657fe5b90600052602060002001819055505b828054809190600190036127d99190613213565b508560010160009054906101000a900473ffffffffffffffffffffffffffffffffffffffff168560010160006101000a81548173ffffffffffffffffffffffffffffffffffffffff021916908373ffffffffffffffffffffffffffffffffffffffff16021790555060058660060160006101000a81548160ff0219169083600681111561286257fe5b02179055507f881ad3d67d12341e72d300e5417ed5e7fb5e2aba6497245073a8710c95e0e0d3898760060160009054906101000a900460ff1660068111156128a657fe5b604051808381526020018281526020019250505060405180910390a1600196506128d0565b600096505b50505050505092915050565b60006001828154811015156128ed57fe5b90600052602060002090600a02019050670de0b6b3a76400003481151561291057fe5b048160080160008282540192505081905550806007015481600801541015156129b55760048160060160006101000a81548160ff0219169083600681111561295457fe5b02179055507f881ad3d67d12341e72d300e5417ed5e7fb5e2aba6497245073a8710c95e0e0d3828260060160009054906101000a900460ff16600681111561299857fe5b604051808381526020018281526020019250505060405180910390a15b5050565b6060600660003373ffffffffffffffffffffffffffffffffffffffff1673ffffffffffffffffffffffffffffffffffffffff168152602001908152602001600020805480602002602001604051908101604052809291908181526020018280548015612a4457602002820191906000526020600020905b815481526020019060010190808311612a30575b5050505050905090565b6000612a5861301d565b858160400181815250508481608001818152505060008160c001906006811115612a7e57fe5b90816006811115612a8b57fe5b81525050601485811515612a9b57fe5b048160e001818152505033816000019073ffffffffffffffffffffffffffffffffffffffff16908173ffffffffffffffffffffffffffffffffffffffff168152505083816020019073ffffffffffffffffffffffffffffffffffffffff16908173ffffffffffffffffffffffffffffffffffffffff1681525050828161012001819052506001819080600181540180825580915050906001820390600052602060002090600a02016000909192909190915060008201518160000160006101000a81548173ffffffffffffffffffffffffffffffffffffffff021916908373ffffffffffffffffffffffffffffffffffffffff16021790555060208201518160010160006101000a81548173ffffffffffffffffffffffffffffffffffffffff021916908373ffffffffffffffffffffffffffffffffffffffff160217905550604082015181600201556060820151816003019080519060200190612c0192919061323f565b506080820151816004015560a0820151816005015560c08201518160060160006101000a81548160ff02191690836006811115612c3a57fe5b021790555060e082015181600701556101008201518160080155610120820151816009019080519060200190612c7192919061313e565b50505050600660008573ffffffffffffffffffffffffffffffffffffffff1673ffffffffffffffffffffffffffffffffffffffff168152602001908152602001600020600180805490500390806001815401808255809150509060018203906000526020600020016000909192909190915055507f881ad3d67d12341e72d300e5417ed5e7fb5e2aba6497245073a8710c95e0e0d360018080549050038260c001516006811115612d1e57fe5b604051808381526020018281526020019250505060405180910390a16001808054905003915050949350505050565b6000612d576130a8565b6080604051908101604052808681526020013373ffffffffffffffffffffffffffffffffffffffff1681526020018573ffffffffffffffffffffffffffffffffffffffff168152602001848152509050600381908060018154018082558091505090600182039060005260206000209060040201600090919290919091506000820151816000019080519060200190612df192919061313e565b5060208201518160010160006101000a81548173ffffffffffffffffffffffffffffffffffffffff021916908373ffffffffffffffffffffffffffffffffffffffff16021790555060408201518160020160006101000a81548173ffffffffffffffffffffffffffffffffffffffff021916908373ffffffffffffffffffffffffffffffffffffffff1602179055506060820151816003015550505060019150509392505050565b600281815481101515612ea857fe5b9060005260206000209060040201600091509050806000018054600181600116156101000203166002900480601f016020809104026020016040519081016040528092919081815260200182805460018160011615610100020316600290048015612f545780601f10612f2957610100808354040283529160200191612f54565b820191906000526020600020905b815481529060010190602001808311612f3757829003601f168201915b5050505050908060010160009054906101000a900473ffffffffffffffffffffffffffffffffffffffff16908060010160149054906101000a900460ff16908060030154905084565b828054600181600116156101000203166002900490600052602060002090601f016020900481019282601f10612fde57805160ff191683800117855561300c565b8280016001018555821561300c579182015b8281111561300b578251825591602001919060010190612ff0565b5b509050613019919061328c565b5090565b61014060405190810160405280600073ffffffffffffffffffffffffffffffffffffffff168152602001600073ffffffffffffffffffffffffffffffffffffffff168152602001600081526020016060815260200160008152602001600081526020016000600681111561308d57fe5b81526020016000815260200160008152602001606081525090565b60806040519081016040528060608152602001600073ffffffffffffffffffffffffffffffffffffffff168152602001600073ffffffffffffffffffffffffffffffffffffffff168152602001600081525090565b60806040519081016040528060608152602001600073ffffffffffffffffffffffffffffffffffffffff168152602001600015158152602001600081525090565b828054600181600116156101000203166002900490600052602060002090601f016020900481019282601f1061317f57805160ff19168380011785556131ad565b828001600101855582156131ad579182015b828111156131ac578251825591602001919060010190613191565b5b5090506131ba919061328c565b5090565b608060405190810160405280600073ffffffffffffffffffffffffffffffffffffffff168152602001600073ffffffffffffffffffffffffffffffffffffffff16815260200160008152602001606081525090565b81548183558181111561323a57818360005260206000209182019101613239919061328c565b5b505050565b82805482825590600052602060002090810192821561327b579160200282015b8281111561327a57825182559160200191906001019061325f565b5b509050613288919061328c565b5090565b6132ae91905b808211156132aa576000816000905550600101613292565b5090565b905600a165627a7a72305820c46441b98789703ab2337801c9fd8be437b25dfc56368e3d662a2a4d9b60fd300029",
  "source": "pragma solidity ^0.4.0;\ncontract PropertyChain {\n    address chairperson;\n    enum AgreementState { INITIATED , ACCEPTED, REJECTED ,AMOUNT_PAID, DUTY_PAID , COMPLETED , GOV_REJECTED }\n    \n    struct Agreement {\n        address initiator;\n        address target;\n        uint property;\n        uint[] transactionIndexes;\n        uint amount;\n        uint amountPaid;\n        AgreementState state;\n        uint stampDuty;\n        uint stampDutyAmountPaid;\n        string terms;\n    }\n    \n    struct Transaction {\n        string hash;\n        address source;\n        address target;\n        uint amount;\n    }\n    \n    struct Property {\n        string locationAddress;\n        address owner;\n        bool approved;\n        mapping(uint => PropertyHistory) records;\n        uint recordsSize;\n    }\n    \n    struct PropertyHistory {\n        address seller;\n        address purchaser;\n        uint dealAmount;\n        string dealTimestamp;\n    }\n    \n    struct User {\n        string name;\n        string avatar;\n        bool authority;\n    }\n    \n    event AgreementUpdated(\n        uint id,\n        uint state\n        );\n    \n    Agreement[] public agreements;\n    Property[] public properties;\n    Transaction[] public transactions;\n    mapping(address => uint[]) public propertyIndices;\n    mapping(address => User) public userMapping;\n    mapping(address => uint[]) public agreementRequests;\n    \n    constructor() public {\n        chairperson = msg.sender;\n    }\n    \n    function createTransaction(string _hash,address _target,uint _amount) public returns(bool _successful){\n        Transaction memory transaction = Transaction({hash: _hash,source: msg.sender,target: _target,amount: _amount});\n        transactions.push(transaction);\n        return true;\n    }\n    \n    function getTransactionCount() public constant returns(uint _count) {\n        return transactions.length;\n    }\n    \n    function getTransactionByIndex(uint _index) public constant returns(string _hash,address _source,address _target,uint _amount) {\n        Transaction memory transaction = transactions[_index];\n        return(transaction.hash,transaction.source,transaction.target,transaction.amount);\n    }\n    \n    function transferProperty(uint _agreement_index,string _deal_timestamp) public returns(bool _successful){\n        if(_agreement_index <= agreements.length){\n            Agreement storage agreement = agreements[_agreement_index];\n            Property storage property = properties[agreement.property];\n            PropertyHistory memory propertyHistory;\n            propertyHistory.seller = property.owner;\n            propertyHistory.purchaser = agreement.target;\n            propertyHistory.dealAmount = agreement.amount;\n            propertyHistory.dealTimestamp = _deal_timestamp;\n            property.records[property.recordsSize] = propertyHistory;\n            property.recordsSize++;\n            propertyIndices[agreement.target].push(agreement.property);\n            uint[] storage prop = propertyIndices[property.owner];\n            uint indexToBeDeleted;\n            for (uint i = 0; i < prop.length; i++) {\n              if (prop[i] == agreement.property) {\n                indexToBeDeleted = i;\n                break;\n              }\n            }\n            // if index to be deleted is not the last index, swap position.\n            if (indexToBeDeleted < prop.length - 1) {\n              prop[indexToBeDeleted] = prop[prop.length - 1];\n            }\n            prop.length--;\n            property.owner = agreement.target;\n            agreement.state = AgreementState.COMPLETED;\n            emit AgreementUpdated(_agreement_index,uint(agreement.state));\n            return true;\n        }\n        return false;\n    }\n    \n    function seedProperties(address _user,string _address) public {\n        Property memory property;\n        property.locationAddress =  _address ;\n        property.owner = _user ;\n        property.approved = true;\n        properties.push(property);\n        propertyIndices[_user].push(properties.length -1 );\n    }\n    \n    function getUserPropertyIndices(address _user) public constant returns(uint[]){\n        return propertyIndices[_user];\n    }\n    \n    function getPropertyByIndex(uint _index) public constant returns(string,address,bool,uint){\n        Property storage prop = properties[_index];\n        return(prop.locationAddress,prop.owner,prop.approved,prop.recordsSize);\n    }\n    \n    function getRecordByIndex(uint _property_index,uint _index) public constant returns(address,address,uint,string){\n        PropertyHistory storage ph = properties[_property_index].records[_index];\n        return(ph.seller,ph.purchaser,ph.dealAmount,ph.dealTimestamp);\n    }\n    \n    function getUser(address _user) public constant returns(string,string,bool) {\n        User storage user = userMapping[_user]; \n        return(user.name,user.avatar,user.authority);\n    }\n    \n    function updateUser(address _user,string _name,string _avatar) public {\n        User storage user = userMapping[_user];\n        user.name = _name;\n        user.avatar = _avatar;\n    }\n    \n    function makeAuthority(address _user) public {\n        userMapping[_user].authority = true;\n    }\n    \n    function intiateAgreement(uint _property_index,uint _amount,address _buyer,string _terms) public returns(uint _id){\n        Agreement memory a;\n        a.property = _property_index;\n        a.amount = _amount;\n        a.state = AgreementState.INITIATED;\n        a.stampDuty = _amount / 20;\n        a.initiator = msg.sender;\n        a.target = _buyer;\n        a.terms = _terms;\n        agreements.push(a);\n        agreementRequests[_buyer].push(agreements.length -1);\n        emit AgreementUpdated(agreements.length -1,uint(a.state));\n        return agreements.length - 1;\n    }\n    \n    function getAgreementRequestsIndices() public constant returns(uint[]){\n        return agreementRequests[msg.sender];\n    }\n    \n    function getAgreementByIndex(uint _index) public constant returns(address,address,uint,uint[],uint,uint,uint,uint,string){\n        Agreement memory a = agreements[_index];\n        return(a.initiator,a.target,a.property,a.transactionIndexes,a.amount,uint(a.state),a.stampDuty,a.stampDutyAmountPaid,a.terms);\n    }\n    \n    function acceptAgreement(uint index) public {\n       agreements[index].state = AgreementState.ACCEPTED; \n       emit AgreementUpdated(index,uint(agreements[index].state));\n    }\n    \n    function rejectAgreement(uint index) public {\n       agreements[index].state = AgreementState.REJECTED; \n       emit AgreementUpdated(index,uint(agreements[index].state));\n    }\n    \n    function paySeller(uint index) public payable {\n        Agreement storage a = agreements[index];\n        a.initiator.transfer(msg.value);\n        a.amountPaid += (msg.value/1000000000000000000);\n        if(a.amountPaid >= a.amount){\n          a.state = AgreementState.AMOUNT_PAID;\n          emit AgreementUpdated(index,uint(a.state));\n        }\n    }\n    \n    function pay_duty(uint index) public payable{\n      Agreement storage a = agreements[index];\n      a.stampDutyAmountPaid += (msg.value/1000000000000000000);\n      if(a.stampDutyAmountPaid >= a.stampDuty){\n          a.state = AgreementState.DUTY_PAID;\n          emit AgreementUpdated(index,uint(a.state));\n      }\n    }\n    \n    function getGovBalance() public constant returns(uint){\n        return address(this).balance;\n    }\n    \n}",
  "sourcePath": "/Users/shubham/Projects/hackathons/cons/src/contracts/PropertyChain.sol",
  "compiler": {
    "name": "solc",
    "version": "0.4.24+commit.e67f0147.Emscripten.clang"
  },
  "schemaVersion": "2.0.1",
  "updatedAt": "2018-07-14T05:29:31.766Z"
}