{
  "contractName": "PropertyChain",
  "abi": [
    {
      "constant": true,
      "inputs": [
        {
          "name": "",
          "type": "address"
        }
      ],
      "name": "userMapping",
      "outputs": [
        {
          "name": "name",
          "type": "string"
        },
        {
          "name": "avatar",
          "type": "string"
        },
        {
          "name": "authority",
          "type": "bool"
        }
      ],
      "payable": false,
      "stateMutability": "view",
      "type": "function"
    },
    {
      "constant": true,
      "inputs": [
        {
          "name": "",
          "type": "address"
        },
        {
          "name": "",
          "type": "uint256"
        }
      ],
      "name": "agreementRequests",
      "outputs": [
        {
          "name": "",
          "type": "uint256"
        }
      ],
      "payable": false,
      "stateMutability": "view",
      "type": "function"
    },
    {
      "constant": true,
      "inputs": [
        {
          "name": "",
          "type": "uint256"
        }
      ],
      "name": "transactions",
      "outputs": [
        {
          "name": "hash",
          "type": "string"
        },
        {
          "name": "source",
          "type": "address"
        },
        {
          "name": "target",
          "type": "address"
        },
        {
          "name": "amount",
          "type": "uint256"
        }
      ],
      "payable": false,
      "stateMutability": "view",
      "type": "function"
    },
    {
      "constant": true,
      "inputs": [
        {
          "name": "",
          "type": "uint256"
        }
      ],
      "name": "agreements",
      "outputs": [
        {
          "name": "initiator",
          "type": "address"
        },
        {
          "name": "target",
          "type": "address"
        },
        {
          "name": "property",
          "type": "uint256"
        },
        {
          "name": "amount",
          "type": "uint256"
        },
        {
          "name": "amountPaid",
          "type": "uint256"
        },
        {
          "name": "state",
          "type": "uint8"
        },
        {
          "name": "stampDuty",
          "type": "uint256"
        },
        {
          "name": "stampDutyAmountPaid",
          "type": "uint256"
        },
        {
          "name": "terms",
          "type": "string"
        }
      ],
      "payable": false,
      "stateMutability": "view",
      "type": "function"
    },
    {
      "constant": true,
      "inputs": [
        {
          "name": "",
          "type": "address"
        },
        {
          "name": "",
          "type": "uint256"
        }
      ],
      "name": "propertyIndices",
      "outputs": [
        {
          "name": "",
          "type": "uint256"
        }
      ],
      "payable": false,
      "stateMutability": "view",
      "type": "function"
    },
    {
      "constant": true,
      "inputs": [
        {
          "name": "",
          "type": "uint256"
        }
      ],
      "name": "properties",
      "outputs": [
        {
          "name": "locationAddress",
          "type": "string"
        },
        {
          "name": "owner",
          "type": "address"
        },
        {
          "name": "approved",
          "type": "bool"
        },
        {
          "name": "recordsSize",
          "type": "uint256"
        }
      ],
      "payable": false,
      "stateMutability": "view",
      "type": "function"
    },
    {
      "inputs": [],
      "payable": false,
      "stateMutability": "nonpayable",
      "type": "constructor"
    },
    {
      "constant": true,
      "inputs": [],
      "name": "returnConstant",
      "outputs": [
        {
          "name": "",
          "type": "uint256"
        }
      ],
      "payable": false,
      "stateMutability": "view",
      "type": "function"
    },
    {
      "constant": true,
      "inputs": [
        {
          "name": "_num",
          "type": "uint256"
        }
      ],
      "name": "returnConstantTest",
      "outputs": [
        {
          "name": "",
          "type": "uint256"
        }
      ],
      "payable": false,
      "stateMutability": "view",
      "type": "function"
    },
    {
      "constant": false,
      "inputs": [
        {
          "name": "_hash",
          "type": "string"
        },
        {
          "name": "_target",
          "type": "address"
        },
        {
          "name": "_amount",
          "type": "uint256"
        }
      ],
      "name": "createTransaction",
      "outputs": [
        {
          "name": "_successful",
          "type": "bool"
        }
      ],
      "payable": false,
      "stateMutability": "nonpayable",
      "type": "function"
    },
    {
      "constant": true,
      "inputs": [],
      "name": "getTransactionCount",
      "outputs": [
        {
          "name": "_count",
          "type": "uint256"
        }
      ],
      "payable": false,
      "stateMutability": "view",
      "type": "function"
    },
    {
      "constant": true,
      "inputs": [
        {
          "name": "_index",
          "type": "uint256"
        }
      ],
      "name": "getTransactionByIndex",
      "outputs": [
        {
          "name": "_hash",
          "type": "string"
        },
        {
          "name": "_source",
          "type": "address"
        },
        {
          "name": "_target",
          "type": "address"
        },
        {
          "name": "_amount",
          "type": "uint256"
        }
      ],
      "payable": false,
      "stateMutability": "view",
      "type": "function"
    },
    {
      "constant": false,
      "inputs": [
        {
          "name": "_agreement_index",
          "type": "uint256"
        },
        {
          "name": "_deal_timestamp",
          "type": "string"
        }
      ],
      "name": "transferProperty",
      "outputs": [
        {
          "name": "_successful",
          "type": "bool"
        }
      ],
      "payable": false,
      "stateMutability": "nonpayable",
      "type": "function"
    },
    {
      "constant": false,
      "inputs": [
        {
          "name": "_user",
          "type": "address"
        }
      ],
      "name": "seedProperties",
      "outputs": [],
      "payable": false,
      "stateMutability": "nonpayable",
      "type": "function"
    },
    {
      "constant": true,
      "inputs": [
        {
          "name": "_user",
          "type": "address"
        }
      ],
      "name": "getUserPropertyIndices",
      "outputs": [
        {
          "name": "",
          "type": "uint256[]"
        }
      ],
      "payable": false,
      "stateMutability": "view",
      "type": "function"
    },
    {
      "constant": true,
      "inputs": [
        {
          "name": "_index",
          "type": "uint256"
        }
      ],
      "name": "getPropertyByIndex",
      "outputs": [
        {
          "name": "",
          "type": "string"
        },
        {
          "name": "",
          "type": "address"
        },
        {
          "name": "",
          "type": "bool"
        },
        {
          "name": "",
          "type": "uint256"
        }
      ],
      "payable": false,
      "stateMutability": "view",
      "type": "function"
    },
    {
      "constant": true,
      "inputs": [
        {
          "name": "_property_index",
          "type": "uint256"
        },
        {
          "name": "_index",
          "type": "uint256"
        }
      ],
      "name": "getRecordByIndex",
      "outputs": [
        {
          "name": "",
          "type": "address"
        },
        {
          "name": "",
          "type": "address"
        },
        {
          "name": "",
          "type": "uint256"
        },
        {
          "name": "",
          "type": "string"
        }
      ],
      "payable": false,
      "stateMutability": "view",
      "type": "function"
    },
    {
      "constant": true,
      "inputs": [
        {
          "name": "_user",
          "type": "address"
        }
      ],
      "name": "getUser",
      "outputs": [
        {
          "name": "",
          "type": "string"
        },
        {
          "name": "",
          "type": "string"
        },
        {
          "name": "",
          "type": "bool"
        }
      ],
      "payable": false,
      "stateMutability": "view",
      "type": "function"
    },
    {
      "constant": false,
      "inputs": [
        {
          "name": "_user",
          "type": "address"
        },
        {
          "name": "_name",
          "type": "string"
        },
        {
          "name": "_avatar",
          "type": "string"
        }
      ],
      "name": "updateUser",
      "outputs": [],
      "payable": false,
      "stateMutability": "nonpayable",
      "type": "function"
    },
    {
      "constant": false,
      "inputs": [
        {
          "name": "_user",
          "type": "address"
        }
      ],
      "name": "makeAuthority",
      "outputs": [],
      "payable": false,
      "stateMutability": "nonpayable",
      "type": "function"
    },
    {
      "constant": false,
      "inputs": [
        {
          "name": "_property_index",
          "type": "uint256"
        },
        {
          "name": "_amount",
          "type": "uint256"
        },
        {
          "name": "_buyer",
          "type": "address"
        },
        {
          "name": "_terms",
          "type": "string"
        }
      ],
      "name": "intiateAgreement",
      "outputs": [
        {
          "name": "_id",
          "type": "uint256"
        }
      ],
      "payable": false,
      "stateMutability": "nonpayable",
      "type": "function"
    },
    {
      "constant": true,
      "inputs": [],
      "name": "getAgreementRequestsIndices",
      "outputs": [
        {
          "name": "",
          "type": "uint256[]"
        }
      ],
      "payable": false,
      "stateMutability": "view",
      "type": "function"
    },
    {
      "constant": true,
      "inputs": [
        {
          "name": "_index",
          "type": "uint256"
        }
      ],
      "name": "getAgreementByIndex",
      "outputs": [
        {
          "name": "",
          "type": "address"
        },
        {
          "name": "",
          "type": "address"
        },
        {
          "name": "",
          "type": "uint256"
        },
        {
          "name": "",
          "type": "uint256[]"
        },
        {
          "name": "",
          "type": "uint256"
        },
        {
          "name": "",
          "type": "uint256"
        },
        {
          "name": "",
          "type": "uint256"
        },
        {
          "name": "",
          "type": "uint256"
        },
        {
          "name": "",
          "type": "string"
        }
      ],
      "payable": false,
      "stateMutability": "view",
      "type": "function"
    },
    {
      "constant": false,
      "inputs": [
        {
          "name": "index",
          "type": "uint256"
        }
      ],
      "name": "acceptAgreement",
      "outputs": [],
      "payable": false,
      "stateMutability": "nonpayable",
      "type": "function"
    },
    {
      "constant": false,
      "inputs": [
        {
          "name": "index",
          "type": "uint256"
        }
      ],
      "name": "rejectAgreement",
      "outputs": [],
      "payable": false,
      "stateMutability": "nonpayable",
      "type": "function"
    },
    {
      "constant": false,
      "inputs": [
        {
          "name": "index",
          "type": "uint256"
        }
      ],
      "name": "paySeller",
      "outputs": [],
      "payable": true,
      "stateMutability": "payable",
      "type": "function"
    },
    {
      "constant": false,
      "inputs": [
        {
          "name": "index",
          "type": "uint256"
        }
      ],
      "name": "pay_duty",
      "outputs": [],
      "payable": true,
      "stateMutability": "payable",
      "type": "function"
    },
    {
      "constant": true,
      "inputs": [],
      "name": "getGovBalance",
      "outputs": [
        {
          "name": "",
          "type": "uint256"
        }
      ],
      "payable": false,
      "stateMutability": "view",
      "type": "function"
    }
  ],
  "bytecode": "0x608060405234801561001057600080fd5b50336000806101000a81548173ffffffffffffffffffffffffffffffffffffffff021916908373ffffffffffffffffffffffffffffffffffffffff160217905550613136806100606000396000f30060806040526004361061015f576000357c0100000000000000000000000000000000000000000000000000000000900463ffffffff16806303c3bc4f146101645780630f27426c146101a757806310e8b22d1461023f578063118b95351461030e57806325365424146104415780632e7700f01461055e5780633ae776d214610589578063457c8816146105b657806362272f95146105e3578063683024671461075a5780636f77926b1461077a5780637f333220146108ad578063869152e71461090e57806397af931b14610a215780639ace38c214610a64578063bd14de9614610b77578063ccea3f5714610cbb578063d3cd0dc914610d1c578063d41861b314610d47578063d55dbd5214610e32578063d654a2a914610e73578063e29da4c014610efe578063e838810714610f1e578063eef3e68d14610f8a578063f40b2a4a1461103b578063f7b10808146110e6578063f7f92ce3146111d1575b600080fd5b34801561017057600080fd5b506101a5600480360381019080803573ffffffffffffffffffffffffffffffffffffffff1690602001909291905050506111fc565b005b3480156101b357600080fd5b506101e8600480360381019080803573ffffffffffffffffffffffffffffffffffffffff16906020019092919050505061125a565b6040518080602001828103825283818151815260200191508051906020019060200280838360005b8381101561022b578082015181840152602081019050610210565b505050509050019250505060405180910390f35b34801561024b57600080fd5b5061030c600480360381019080803573ffffffffffffffffffffffffffffffffffffffff169060200190929190803590602001908201803590602001908080601f0160208091040260200160405190810160405280939291908181526020018383808284378201915050505050509192919290803590602001908201803590602001908080601f01602080910402602001604051908101604052809392919081815260200183838082843782019150505050505091929192905050506112f1565b005b34801561031a57600080fd5b5061034f600480360381019080803573ffffffffffffffffffffffffffffffffffffffff16906020019092919050505061136c565b60405180806020018060200184151515158152602001838103835286818151815260200191508051906020019080838360005b8381101561039d578082015181840152602081019050610382565b50505050905090810190601f1680156103ca5780820380516001836020036101000a031916815260200191505b50838103825285818151815260200191508051906020019080838360005b838110156104035780820151818401526020810190506103e8565b50505050905090810190601f1680156104305780820380516001836020036101000a031916815260200191505b509550505050505060405180910390f35b34801561044d57600080fd5b5061047660048036038101908080359060200190929190803590602001909291905050506114d3565b604051808573ffffffffffffffffffffffffffffffffffffffff1673ffffffffffffffffffffffffffffffffffffffff1681526020018473ffffffffffffffffffffffffffffffffffffffff1673ffffffffffffffffffffffffffffffffffffffff16815260200183815260200180602001828103825283818151815260200191508051906020019080838360005b83811015610520578082015181840152602081019050610505565b50505050905090810190601f16801561054d5780820380516001836020036101000a031916815260200191505b509550505050505060405180910390f35b34801561056a57600080fd5b50610573611610565b6040518082815260200191505060405180910390f35b34801561059557600080fd5b506105b46004803603810190808035906020019092919050505061161d565b005b3480156105c257600080fd5b506105e160048036038101908080359060200190929190505050611661565b005b3480156105ef57600080fd5b5061060e600480360381019080803590602001909291905050506116a6565b604051808a73ffffffffffffffffffffffffffffffffffffffff1673ffffffffffffffffffffffffffffffffffffffff1681526020018973ffffffffffffffffffffffffffffffffffffffff1673ffffffffffffffffffffffffffffffffffffffff1681526020018881526020018060200187815260200186815260200185815260200184815260200180602001838103835289818151815260200191508051906020019060200280838360005b838110156106d75780820151818401526020810190506106bc565b50505050905001838103825284818151815260200191508051906020019080838360005b838110156107165780820151818401526020810190506106fb565b50505050905090810190601f1680156107435780820380516001836020036101000a031916815260200191505b509b50505050505050505050505060405180910390f35b6107786004803603810190808035906020019092919050505061194e565b005b34801561078657600080fd5b506107bb600480360381019080803573ffffffffffffffffffffffffffffffffffffffff169060200190929190505050611a3b565b60405180806020018060200184151515158152602001838103835286818151815260200191508051906020019080838360005b838110156108095780820151818401526020810190506107ee565b50505050905090810190601f1680156108365780820380516001836020036101000a031916815260200191505b50838103825285818151815260200191508051906020019080838360005b8381101561086f578082015181840152602081019050610854565b50505050905090810190601f16801561089c5780820380516001836020036101000a031916815260200191505b509550505050505060405180910390f35b3480156108b957600080fd5b506108f8600480360381019080803573ffffffffffffffffffffffffffffffffffffffff16906020019092919080359060200190929190505050611be2565b6040518082815260200191505060405180910390f35b34801561091a57600080fd5b5061093960048036038101908080359060200190929190505050611c12565b60405180806020018573ffffffffffffffffffffffffffffffffffffffff1673ffffffffffffffffffffffffffffffffffffffff1681526020018473ffffffffffffffffffffffffffffffffffffffff1673ffffffffffffffffffffffffffffffffffffffff168152602001838152602001828103825286818151815260200191508051906020019080838360005b838110156109e35780820151818401526020810190506109c8565b50505050905090810190601f168015610a105780820380516001836020036101000a031916815260200191505b509550505050505060405180910390f35b348015610a2d57600080fd5b50610a62600480360381019080803573ffffffffffffffffffffffffffffffffffffffff169060200190929190505050611dcb565b005b348015610a7057600080fd5b50610a8f60048036038101908080359060200190929190505050611fb5565b60405180806020018573ffffffffffffffffffffffffffffffffffffffff1673ffffffffffffffffffffffffffffffffffffffff1681526020018473ffffffffffffffffffffffffffffffffffffffff1673ffffffffffffffffffffffffffffffffffffffff168152602001838152602001828103825286818151815260200191508051906020019080838360005b83811015610b39578082015181840152602081019050610b1e565b50505050905090810190601f168015610b665780820380516001836020036101000a031916815260200191505b509550505050505060405180910390f35b348015610b8357600080fd5b50610ba2600480360381019080803590602001909291905050506120cc565b604051808a73ffffffffffffffffffffffffffffffffffffffff1673ffffffffffffffffffffffffffffffffffffffff1681526020018973ffffffffffffffffffffffffffffffffffffffff1673ffffffffffffffffffffffffffffffffffffffff168152602001888152602001878152602001868152602001856006811115610c2857fe5b60ff16815260200184815260200183815260200180602001828103825283818151815260200191508051906020019080838360005b83811015610c78578082015181840152602081019050610c5d565b50505050905090810190601f168015610ca55780820380516001836020036101000a031916815260200191505b509a505050505050505050505060405180910390f35b348015610cc757600080fd5b50610d06600480360381019080803573ffffffffffffffffffffffffffffffffffffffff1690602001909291908035906020019092919050505061220e565b6040518082815260200191505060405180910390f35b348015610d2857600080fd5b50610d3161223e565b6040518082815260200191505060405180910390f35b348015610d5357600080fd5b50610d726004803603810190808035906020019092919050505061225d565b60405180806020018573ffffffffffffffffffffffffffffffffffffffff1673ffffffffffffffffffffffffffffffffffffffff16815260200184151515158152602001838152602001828103825286818151815260200191508051906020019080838360005b83811015610df4578082015181840152602081019050610dd9565b50505050905090810190601f168015610e215780820380516001836020036101000a031916815260200191505b509550505050505060405180910390f35b348015610e3e57600080fd5b50610e5d60048036038101908080359060200190929190505050612370565b6040518082815260200191505060405180910390f35b348015610e7f57600080fd5b50610ee460048036038101908080359060200190929190803590602001908201803590602001908080601f016020809104026020016040519081016040528093929190818152602001838380828437820191505050505050919291929050505061237d565b604051808215151515815260200191505060405180910390f35b610f1c600480360381019080803590602001909291905050506127dc565b005b348015610f2a57600080fd5b50610f3361285e565b6040518080602001828103825283818151815260200191508051906020019060200280838360005b83811015610f76578082015181840152602081019050610f5b565b505050509050019250505060405180910390f35b348015610f9657600080fd5b506110256004803603810190808035906020019092919080359060200190929190803573ffffffffffffffffffffffffffffffffffffffff169060200190929190803590602001908201803590602001908080601f01602080910402602001604051908101604052809392919081815260200183838082843782019150505050505091929192905050506128f3565b6040518082815260200191505060405180910390f35b34801561104757600080fd5b506110cc600480360381019080803590602001908201803590602001908080601f0160208091040260200160405190810160405280939291908181526020018383808284378201915050505050509192919290803573ffffffffffffffffffffffffffffffffffffffff16906020019092919080359060200190929190505050612b9d565b604051808215151515815260200191505060405180910390f35b3480156110f257600080fd5b5061111160048036038101908080359060200190929190505050612ce9565b60405180806020018573ffffffffffffffffffffffffffffffffffffffff1673ffffffffffffffffffffffffffffffffffffffff16815260200184151515158152602001838152602001828103825286818151815260200191508051906020019080838360005b83811015611193578082015181840152602081019050611178565b50505050905090810190601f1680156111c05780820380516001836020036101000a031916815260200191505b509550505050505060405180910390f35b3480156111dd57600080fd5b506111e6612ded565b6040518082815260200191505060405180910390f35b6001600560008373ffffffffffffffffffffffffffffffffffffffff1673ffffffffffffffffffffffffffffffffffffffff16815260200190815260200160002060020160006101000a81548160ff02191690831515021790555050565b6060600460008373ffffffffffffffffffffffffffffffffffffffff1673ffffffffffffffffffffffffffffffffffffffff1681526020019081526020016000208054806020026020016040519081016040528092919081815260200182805480156112e557602002820191906000526020600020905b8154815260200190600101908083116112d1575b50505050509050919050565b6000600560008573ffffffffffffffffffffffffffffffffffffffff1673ffffffffffffffffffffffffffffffffffffffff16815260200190815260200160002090508281600001908051906020019061134c929190612df6565b5081816001019080519060200190611365929190612df6565b5050505050565b6005602052806000526040600020600091509050806000018054600181600116156101000203166002900480601f0160208091040260200160405190810160405280929190818152602001828054600181600116156101000203166002900480156114185780601f106113ed57610100808354040283529160200191611418565b820191906000526020600020905b8154815290600101906020018083116113fb57829003601f168201915b505050505090806001018054600181600116156101000203166002900480601f0160208091040260200160405190810160405280929190818152602001828054600181600116156101000203166002900480156114b65780601f1061148b576101008083540402835291602001916114b6565b820191906000526020600020905b81548152906001019060200180831161149957829003601f168201915b5050505050908060020160009054906101000a900460ff16905083565b6000806000606060006002878154811015156114eb57fe5b9060005260206000209060040201600201600087815260200190815260200160002090508060000160009054906101000a900473ffffffffffffffffffffffffffffffffffffffff168160010160009054906101000a900473ffffffffffffffffffffffffffffffffffffffff16826002015483600301808054600181600116156101000203166002900480601f0160208091040260200160405190810160405280929190818152602001828054600181600116156101000203166002900480156115f75780601f106115cc576101008083540402835291602001916115f7565b820191906000526020600020905b8154815290600101906020018083116115da57829003601f168201915b5050505050905094509450945094505092959194509250565b6000600380549050905090565b6001808281548110151561162d57fe5b90600052602060002090600a020160060160006101000a81548160ff0219169083600681111561165957fe5b021790555050565b600260018281548110151561167257fe5b90600052602060002090600a020160060160006101000a81548160ff0219169083600681111561169e57fe5b021790555050565b6000806000606060008060008060606116bd612e76565b60018b8154811015156116cc57fe5b90600052602060002090600a020161014060405190810160405290816000820160009054906101000a900473ffffffffffffffffffffffffffffffffffffffff1673ffffffffffffffffffffffffffffffffffffffff1673ffffffffffffffffffffffffffffffffffffffff1681526020016001820160009054906101000a900473ffffffffffffffffffffffffffffffffffffffff1673ffffffffffffffffffffffffffffffffffffffff1673ffffffffffffffffffffffffffffffffffffffff16815260200160028201548152602001600382018054806020026020016040519081016040528092919081815260200182805480156117ec57602002820191906000526020600020905b8154815260200190600101908083116117d8575b5050505050815260200160048201548152602001600582015481526020016006820160009054906101000a900460ff16600681111561182757fe5b600681111561183257fe5b81526020016007820154815260200160088201548152602001600982018054600181600116156101000203166002900480601f0160208091040260200160405190810160405280929190818152602001828054600181600116156101000203166002900480156118e35780601f106118b8576101008083540402835291602001916118e3565b820191906000526020600020905b8154815290600101906020018083116118c657829003601f168201915b5050505050815250509050806000015181602001518260400151836060015184608001518560c00151600681111561191757fe5b8660e00151876101000151886101200151859550809050995099509950995099509950995099509950509193959799909294969850565b600060018281548110151561195f57fe5b90600052602060002090600a020190508060000160009054906101000a900473ffffffffffffffffffffffffffffffffffffffff1673ffffffffffffffffffffffffffffffffffffffff166108fc349081150290604051600060405180830381858888f193505050501580156119d9573d6000803e3d6000fd5b50670de0b6b3a7640000348115156119ed57fe5b04816005016000828254019250508190555080600401548160050154101515611a375760038160060160006101000a81548160ff02191690836006811115611a3157fe5b02179055505b5050565b606080600080600560008673ffffffffffffffffffffffffffffffffffffffff1673ffffffffffffffffffffffffffffffffffffffff168152602001908152602001600020905080600001816001018260020160009054906101000a900460ff16828054600181600116156101000203166002900480601f016020809104026020016040519081016040528092919081815260200182805460018160011615610100020316600290048015611b315780601f10611b0657610100808354040283529160200191611b31565b820191906000526020600020905b815481529060010190602001808311611b1457829003601f168201915b50505050509250818054600181600116156101000203166002900480601f016020809104026020016040519081016040528092919081815260200182805460018160011615610100020316600290048015611bcd5780601f10611ba257610100808354040283529160200191611bcd565b820191906000526020600020905b815481529060010190602001808311611bb057829003601f168201915b50505050509150935093509350509193909250565b600660205281600052604060002081815481101515611bfd57fe5b90600052602060002001600091509150505481565b60606000806000611c21612f01565b600386815481101515611c3057fe5b906000526020600020906004020160806040519081016040529081600082018054600181600116156101000203166002900480601f016020809104026020016040519081016040528092919081815260200182805460018160011615610100020316600290048015611ce35780601f10611cb857610100808354040283529160200191611ce3565b820191906000526020600020905b815481529060010190602001808311611cc657829003601f168201915b505050505081526020016001820160009054906101000a900473ffffffffffffffffffffffffffffffffffffffff1673ffffffffffffffffffffffffffffffffffffffff1673ffffffffffffffffffffffffffffffffffffffff1681526020016002820160009054906101000a900473ffffffffffffffffffffffffffffffffffffffff1673ffffffffffffffffffffffffffffffffffffffff1673ffffffffffffffffffffffffffffffffffffffff168152602001600382015481525050905080600001518160200151826040015183606001518393509450945094509450509193509193565b611dd3612f56565b606060405190810160405280602681526020017f486f757365204e756d626572203132312c53757368616e74204c6f6b2c4e657781526020017f2044656c68690000000000000000000000000000000000000000000000000000815250816000018190525081816020019073ffffffffffffffffffffffffffffffffffffffff16908173ffffffffffffffffffffffffffffffffffffffff16815250506001816040019015159081151581525050600281908060018154018082558091505090600182039060005260206000209060040201600090919290919091506000820151816000019080519060200190611ecb929190612f97565b5060208201518160010160006101000a81548173ffffffffffffffffffffffffffffffffffffffff021916908373ffffffffffffffffffffffffffffffffffffffff16021790555060408201518160010160146101000a81548160ff02191690831515021790555060608201518160030155505050600460008373ffffffffffffffffffffffffffffffffffffffff1673ffffffffffffffffffffffffffffffffffffffff16815260200190815260200160002060016002805490500390806001815401808255809150509060018203906000526020600020016000909192909190915055505050565b600381815481101515611fc457fe5b9060005260206000209060040201600091509050806000018054600181600116156101000203166002900480601f0160208091040260200160405190810160405280929190818152602001828054600181600116156101000203166002900480156120705780601f1061204557610100808354040283529160200191612070565b820191906000526020600020905b81548152906001019060200180831161205357829003601f168201915b5050505050908060010160009054906101000a900473ffffffffffffffffffffffffffffffffffffffff16908060020160009054906101000a900473ffffffffffffffffffffffffffffffffffffffff16908060030154905084565b6001818154811015156120db57fe5b90600052602060002090600a02016000915090508060000160009054906101000a900473ffffffffffffffffffffffffffffffffffffffff16908060010160009054906101000a900473ffffffffffffffffffffffffffffffffffffffff16908060020154908060040154908060050154908060060160009054906101000a900460ff1690806007015490806008015490806009018054600181600116156101000203166002900480601f0160208091040260200160405190810160405280929190818152602001828054600181600116156101000203166002900480156122045780601f106121d957610100808354040283529160200191612204565b820191906000526020600020905b8154815290600101906020018083116121e757829003601f168201915b5050505050905089565b60046020528160005260406000208181548110151561222957fe5b90600052602060002001600091509150505481565b60003073ffffffffffffffffffffffffffffffffffffffff1631905090565b606060008060008060028681548110151561227457fe5b90600052602060002090600402019050806000018160010160009054906101000a900473ffffffffffffffffffffffffffffffffffffffff168260010160149054906101000a900460ff168360030154838054600181600116156101000203166002900480601f0160208091040260200160405190810160405280929190818152602001828054600181600116156101000203166002900480156123595780601f1061232e57610100808354040283529160200191612359565b820191906000526020600020905b81548152906001019060200180831161233c57829003601f168201915b505050505093509450945094509450509193509193565b6000600a82029050919050565b600080600061238a613017565b6000806000600180549050891115156127cb576001898154811015156123ac57fe5b90600052602060002090600a02019550600286600201548154811015156123cf57fe5b906000526020600020906004020194508460010160009054906101000a900473ffffffffffffffffffffffffffffffffffffffff16846000019073ffffffffffffffffffffffffffffffffffffffff16908173ffffffffffffffffffffffffffffffffffffffff16815250508560010160009054906101000a900473ffffffffffffffffffffffffffffffffffffffff16846020019073ffffffffffffffffffffffffffffffffffffffff16908173ffffffffffffffffffffffffffffffffffffffff16815250508560040154846040018181525050878460600181905250838560020160008760030154815260200190815260200160002060008201518160000160006101000a81548173ffffffffffffffffffffffffffffffffffffffff021916908373ffffffffffffffffffffffffffffffffffffffff16021790555060208201518160010160006101000a81548173ffffffffffffffffffffffffffffffffffffffff021916908373ffffffffffffffffffffffffffffffffffffffff16021790555060408201518160020155606082015181600301908051906020019061257c929190612f97565b509050508460030160008154809291906001019190505550600460008760010160009054906101000a900473ffffffffffffffffffffffffffffffffffffffff1673ffffffffffffffffffffffffffffffffffffffff1673ffffffffffffffffffffffffffffffffffffffff16815260200190815260200160002086600201549080600181540180825580915050906001820390600052602060002001600090919290919091505550600460008660010160009054906101000a900473ffffffffffffffffffffffffffffffffffffffff1673ffffffffffffffffffffffffffffffffffffffff1673ffffffffffffffffffffffffffffffffffffffff1681526020019081526020016000209250600090505b82805490508110156126d457856002015483828154811015156126ae57fe5b906000526020600020015414156126c7578091506126d4565b808060010191505061268f565b6001838054905003821015612720578260018480549050038154811015156126f857fe5b9060005260206000200154838381548110151561271157fe5b90600052602060002001819055505b82805480919060019003612734919061306c565b508560010160009054906101000a900473ffffffffffffffffffffffffffffffffffffffff168560010160006101000a81548173ffffffffffffffffffffffffffffffffffffffff021916908373ffffffffffffffffffffffffffffffffffffffff16021790555060058660060160006101000a81548160ff021916908360068111156127bd57fe5b0217905550600196506127d0565b600096505b50505050505092915050565b60006001828154811015156127ed57fe5b90600052602060002090600a02019050670de0b6b3a76400003481151561281057fe5b0481600801600082825401925050819055508060070154816008015410151561285a5760048160060160006101000a81548160ff0219169083600681111561285457fe5b02179055505b5050565b6060600660003373ffffffffffffffffffffffffffffffffffffffff1673ffffffffffffffffffffffffffffffffffffffff1681526020019081526020016000208054806020026020016040519081016040528092919081815260200182805480156128e957602002820191906000526020600020905b8154815260200190600101908083116128d5575b5050505050905090565b60006128fd612e76565b858160400181815250508481608001818152505060008160c00190600681111561292357fe5b9081600681111561293057fe5b8152505060148581151561294057fe5b048160e001818152505033816000019073ffffffffffffffffffffffffffffffffffffffff16908173ffffffffffffffffffffffffffffffffffffffff168152505083816020019073ffffffffffffffffffffffffffffffffffffffff16908173ffffffffffffffffffffffffffffffffffffffff1681525050828161012001819052506001819080600181540180825580915050906001820390600052602060002090600a02016000909192909190915060008201518160000160006101000a81548173ffffffffffffffffffffffffffffffffffffffff021916908373ffffffffffffffffffffffffffffffffffffffff16021790555060208201518160010160006101000a81548173ffffffffffffffffffffffffffffffffffffffff021916908373ffffffffffffffffffffffffffffffffffffffff160217905550604082015181600201556060820151816003019080519060200190612aa6929190613098565b506080820151816004015560a0820151816005015560c08201518160060160006101000a81548160ff02191690836006811115612adf57fe5b021790555060e082015181600701556101008201518160080155610120820151816009019080519060200190612b16929190612f97565b50505050600660008573ffffffffffffffffffffffffffffffffffffffff1673ffffffffffffffffffffffffffffffffffffffff168152602001908152602001600020600180805490500390806001815401808255809150509060018203906000526020600020016000909192909190915055506001808054905003915050949350505050565b6000612ba7612f01565b6080604051908101604052808681526020013373ffffffffffffffffffffffffffffffffffffffff1681526020018573ffffffffffffffffffffffffffffffffffffffff168152602001848152509050600381908060018154018082558091505090600182039060005260206000209060040201600090919290919091506000820151816000019080519060200190612c41929190612f97565b5060208201518160010160006101000a81548173ffffffffffffffffffffffffffffffffffffffff021916908373ffffffffffffffffffffffffffffffffffffffff16021790555060408201518160020160006101000a81548173ffffffffffffffffffffffffffffffffffffffff021916908373ffffffffffffffffffffffffffffffffffffffff1602179055506060820151816003015550505060019150509392505050565b600281815481101515612cf857fe5b9060005260206000209060040201600091509050806000018054600181600116156101000203166002900480601f016020809104026020016040519081016040528092919081815260200182805460018160011615610100020316600290048015612da45780601f10612d7957610100808354040283529160200191612da4565b820191906000526020600020905b815481529060010190602001808311612d8757829003601f168201915b5050505050908060010160009054906101000a900473ffffffffffffffffffffffffffffffffffffffff16908060010160149054906101000a900460ff16908060030154905084565b600060c8905090565b828054600181600116156101000203166002900490600052602060002090601f016020900481019282601f10612e3757805160ff1916838001178555612e65565b82800160010185558215612e65579182015b82811115612e64578251825591602001919060010190612e49565b5b509050612e7291906130e5565b5090565b61014060405190810160405280600073ffffffffffffffffffffffffffffffffffffffff168152602001600073ffffffffffffffffffffffffffffffffffffffff1681526020016000815260200160608152602001600081526020016000815260200160006006811115612ee657fe5b81526020016000815260200160008152602001606081525090565b60806040519081016040528060608152602001600073ffffffffffffffffffffffffffffffffffffffff168152602001600073ffffffffffffffffffffffffffffffffffffffff168152602001600081525090565b60806040519081016040528060608152602001600073ffffffffffffffffffffffffffffffffffffffff168152602001600015158152602001600081525090565b828054600181600116156101000203166002900490600052602060002090601f016020900481019282601f10612fd857805160ff1916838001178555613006565b82800160010185558215613006579182015b82811115613005578251825591602001919060010190612fea565b5b50905061301391906130e5565b5090565b608060405190810160405280600073ffffffffffffffffffffffffffffffffffffffff168152602001600073ffffffffffffffffffffffffffffffffffffffff16815260200160008152602001606081525090565b8154818355818111156130935781836000526020600020918201910161309291906130e5565b5b505050565b8280548282559060005260206000209081019282156130d4579160200282015b828111156130d35782518255916020019190600101906130b8565b5b5090506130e191906130e5565b5090565b61310791905b808211156131035760008160009055506001016130eb565b5090565b905600a165627a7a7230582097569e9f6b8f526402e70b5e0bc1a935e37c4bc7618323a62c8840a09e351c030029",
  "source": "pragma solidity ^0.4.0;\ncontract PropertyChain {\n    address chairperson;\n    enum AgreementState { INITIATED , ACCEPTED, REJECTED ,AMOUNT_PAID, DUTY_PAID , COMPLETED , GOV_REJECTED }\n    \n    struct Agreement {\n        address initiator;\n        address target;\n        uint property;\n        uint[] transactionIndexes;\n        uint amount;\n        uint amountPaid;\n        AgreementState state;\n        uint stampDuty;\n        uint stampDutyAmountPaid;\n        string terms;\n    }\n    \n    struct Transaction {\n        string hash;\n        address source;\n        address target;\n        uint amount;\n    }\n    \n    struct Property {\n        string locationAddress;\n        address owner;\n        bool approved;\n        mapping(uint => PropertyHistory) records;\n        uint recordsSize;\n    }\n    \n    struct PropertyHistory {\n        address seller;\n        address purchaser;\n        uint dealAmount;\n        string dealTimestamp;\n    }\n    \n    struct User {\n        string name;\n        string avatar;\n        bool authority;\n    }\n    \n    Agreement[] public agreements;\n    Property[] public properties;\n    Transaction[] public transactions;\n    mapping(address => uint[]) public propertyIndices;\n    mapping(address => User) public userMapping;\n    mapping(address => uint[]) public agreementRequests;\n    \n    constructor() public {\n        chairperson = msg.sender;\n    }\n\n    function returnConstant() public constant returns(uint) {\n        return 200;\n    }\n\n    function returnConstantTest(uint _num) public constant returns(uint) {\n        return _num * 10;\n    }\n    \n    function createTransaction(string _hash,address _target,uint _amount) public returns(bool _successful){\n        Transaction memory transaction = Transaction({hash: _hash,source: msg.sender,target: _target,amount: _amount});\n        transactions.push(transaction);\n        return true;\n    }\n    \n    function getTransactionCount() public constant returns(uint _count) {\n        return transactions.length;\n    }\n    \n    function getTransactionByIndex(uint _index) public constant returns(string _hash,address _source,address _target,uint _amount) {\n        Transaction memory transaction = transactions[_index];\n        return(transaction.hash,transaction.source,transaction.target,transaction.amount);\n    }\n    \n    function transferProperty(uint _agreement_index,string _deal_timestamp) public returns(bool _successful){\n        if(_agreement_index <= agreements.length){\n            Agreement storage agreement = agreements[_agreement_index];\n            Property storage property = properties[agreement.property];\n            PropertyHistory memory propertyHistory;\n            propertyHistory.seller = property.owner;\n            propertyHistory.purchaser = agreement.target;\n            propertyHistory.dealAmount = agreement.amount;\n            propertyHistory.dealTimestamp = _deal_timestamp;\n            property.records[property.recordsSize] = propertyHistory;\n            property.recordsSize++;\n            propertyIndices[agreement.target].push(agreement.property);\n            uint[] storage prop = propertyIndices[property.owner];\n            uint indexToBeDeleted;\n            for (uint i = 0; i < prop.length; i++) {\n              if (prop[i] == agreement.property) {\n                indexToBeDeleted = i;\n                break;\n              }\n            }\n            // if index to be deleted is not the last index, swap position.\n            if (indexToBeDeleted < prop.length - 1) {\n              prop[indexToBeDeleted] = prop[prop.length - 1];\n            }\n            prop.length--;\n            property.owner = agreement.target;\n            agreement.state = AgreementState.COMPLETED;\n            return true;\n        }\n        return false;\n    }\n    \n    function seedProperties(address _user) public {\n        Property memory property;\n        property.locationAddress =  'House Number 121,Sushant Lok,New Delhi' ;\n        property.owner = _user ;\n        property.approved = true;\n        properties.push(property);\n        propertyIndices[_user].push(properties.length -1 );\n    }\n    \n    function getUserPropertyIndices(address _user) public constant returns(uint[]){\n        return propertyIndices[_user];\n    }\n    \n    function getPropertyByIndex(uint _index) public constant returns(string,address,bool,uint){\n        Property storage prop = properties[_index];\n        return(prop.locationAddress,prop.owner,prop.approved,prop.recordsSize);\n    }\n    \n    function getRecordByIndex(uint _property_index,uint _index) public constant returns(address,address,uint,string){\n        PropertyHistory storage ph = properties[_property_index].records[_index];\n        return(ph.seller,ph.purchaser,ph.dealAmount,ph.dealTimestamp);\n    }\n    \n    function getUser(address _user) public constant returns(string,string,bool) {\n        User storage user = userMapping[_user]; \n        return(user.name,user.avatar,user.authority);\n    }\n    \n    function updateUser(address _user,string _name,string _avatar) public {\n        User storage user = userMapping[_user];\n        user.name = _name;\n        user.avatar = _avatar;\n    }\n    \n    function makeAuthority(address _user) public {\n        userMapping[_user].authority = true;\n    }\n    \n    function intiateAgreement(uint _property_index,uint _amount,address _buyer,string _terms) public returns(uint _id){\n        Agreement memory a;\n        a.property = _property_index;\n        a.amount = _amount;\n        a.state = AgreementState.INITIATED;\n        a.stampDuty = _amount / 20;\n        a.initiator = msg.sender;\n        a.target = _buyer;\n        a.terms = _terms;\n        agreements.push(a);\n        agreementRequests[_buyer].push(agreements.length -1);\n        return agreements.length - 1;\n    }\n    \n    function getAgreementRequestsIndices() public constant returns(uint[]){\n        return agreementRequests[msg.sender];\n    }\n    \n    function getAgreementByIndex(uint _index) public constant returns(address,address,uint,uint[],uint,uint,uint,uint,string){\n        Agreement memory a = agreements[_index];\n        return(a.initiator,a.target,a.property,a.transactionIndexes,a.amount,uint(a.state),a.stampDuty,a.stampDutyAmountPaid,a.terms);\n    }\n    \n    function acceptAgreement(uint index) public {\n       agreements[index].state = AgreementState.ACCEPTED; \n    }\n    \n    function rejectAgreement(uint index) public {\n       agreements[index].state = AgreementState.REJECTED; \n    }\n    \n    function paySeller(uint index) public payable {\n        Agreement storage a = agreements[index];\n        a.initiator.transfer(msg.value);\n        a.amountPaid += (msg.value/1000000000000000000);\n        if(a.amountPaid >= a.amount){\n          a.state = AgreementState.AMOUNT_PAID;\n      }\n    }\n    \n    function pay_duty(uint index) public payable{\n      Agreement storage a = agreements[index];\n      a.stampDutyAmountPaid += (msg.value/1000000000000000000);\n      if(a.stampDutyAmountPaid >= a.stampDuty){\n          a.state = AgreementState.DUTY_PAID;\n      }\n    }\n    \n    function getGovBalance() public constant returns(uint){\n        return address(this).balance;\n    }\n    \n}\n",
  "sourcePath": "/Users/shubham/Projects/hackathons/cons/src/contracts/PropertyChain.sol",
  "compiler": {
    "name": "solc",
    "version": "0.4.24+commit.e67f0147.Emscripten.clang"
  },
  "schemaVersion": "2.0.1",
  "updatedAt": "2018-07-13T22:47:37.305Z"
}